:020000040800F2
:10000000F81300209D010008BF3A00080D320008D7
:10001000BD3A00087F0C0008E5470008000000001A
:100020000000000000000000000000004D3F00083C
:10003000490D0008000000007D3E0008C341000893
:10004000B7010008B7010008B7010008B7010008B0
:10005000B7010008B7010008B7010008B7010008A0
:10006000B7010008B7010008B7010008B701000890
:10007000B7010008B7010008B7010008B701000880
:10008000B7010008B7010008B7010008B701000870
:10009000B7010008B7010008B7010008B701000860
:1000A0006D4200089142000885420008794200082C
:1000B0009D420008A9420008B5420008B7010008A7
:1000C000B7010008B7010008B7010008B701000830
:1000D000B7010008D9470008B7010008B7010008B8
:1000E000B7010008B7010008B7010008B701000810
:1000F000B7010008B7010008B7010008B701000800
:10010000B7010008B7010008B7010008B7010008EF
:10011000B7010008B7010008C1420008B701000894
:10012000810C0008B70100088D0C0008B701000819
:10013000B7010008B7010008B7010008B7010008BF
:10014000B7010008B7010008B7010008B7010008AF
:10015000B7010008B7010008990C0008B7010008B2
:10016000B7010008B7010008B7010008B70100088F
:10017000B7010008B7010008B7010008000000003F
:10018000B7010008B7010008DFF80CD000F040FB11
:100190000048004759490008F813002006488047E6
:1001A00006480047FEE7FEE7FEE7FEE7FEE7FEE75C
:1001B000FEE7FEE7FEE7FEE75D4200088901000872
:1001C0009FED1A1AF5EE000A40EE010ABDEEE00AB4
:1001D000F5EEC00A10EE100AF1EE10FA38BF401E1C
:1001E00000EE100A1349F7EE001AB8EEC00A30EE1E
:1001F000C00ADFED0F0A20EE200AFCEEC00A10EE66
:10020000900AC0F3080000EE900A01EB8000F8EEBF
:10021000600A90ED011A70EE600A90ED000A71EE2E
:10022000E01A21EE800A00EE810A704783F9223E2F
:100230000000004498540008B5EEC00AF1EE10FA30
:1002400007D2DFED1E0AB4EEE00AF1EE10FAA8BF05
:100250007047DFED1B0AB5EEC00A60EE200ABDEE66
:10026000E01A11EE100AF1EE10FA38BF401E00EE4F
:10027000100A1549F7EE001AB8EEC00A30EEC00AAF
:10028000DFED100A60EE200ABCEEE00A10EE100A64
:10029000C0F3080000EE100A01EB8000B8EE400A3F
:1002A00090ED011A70EEC00A90ED000A71EEE01AAE
:1002B00021EE800A00EE810A70470000CD024CB4A6
:1002C00083F9223E00000044985400082DE9F05FB5
:1002D0000546002092469B468846064681464024B5
:1002E0001BE0284641464746224600F089F953461E
:1002F0005A46C01A914110D311461846224600F0C2
:1003000070F92D1A67EB01084F46224601200021A3
:1003100000F067F917EB00094E41201EA4F101041B
:10032000DFDC484631462A464346BDE8F09FD2B25C
:1003300001E000F8012B491EFBD270470022F6E7CE
:1003400010B513460A4604461946FFF7F0FF20464B
:1003500010BD2DE9FE4F804681EA0300C00F0C4618
:10036000009021F0004123F00045B8EB0200A941C4
:1003700005D24046214690461C460B46024623F0D5
:100380000040104347D0270DC7F30A00C3F30A51BA
:100390000290401A019040286BDAC3F3130040F436
:1003A000801B0098924620B10023D2EB030A63EB36
:1003B0000B0B01985946C0F14002504600F011F96C
:1003C00006460D4650465946019A00F029F910EBB1
:1003D00008006141002487EA115284EAE7731A4356
:1003E00040D0009A62B3019A012A4FEA075215DC05
:1003F000001B61EB02014FF0004202EA0752CDE917
:100400000042001C41F5801132462B4600F060F995
:1004100003B0BDE8F08F40462146F9E7001B61EBD1
:100420000201001C41F5801300185B412018A2F561
:10043000001747EB030140EAD570B6196D4111E092
:100440006D084FEA360645EAC0754FEA0752001BB1
:1004500061EB0201001C41F5801149084FEA3000B0
:100460000019514132462B4603B0BDE8F04F00F071
:1004700020B90098012240000023D0EB020263EB78
:10048000E073009821464FEAE074B8EB000061EB9E
:100490000401E9E783F000435BE781F0004158E79E
:1004A0002DE9FE4F81EA030404F0004421F00041ED
:1004B00000944FF0000B23F0004350EA01045ED09B
:1004C00052EA03045BD0C3F30A54C1F30A552C4427
:1004D000A4F2F3340194A0FB0254C1F3130141F4DC
:1004E0008011C3F3130343F4801301FB024400FBA8
:1004F000034E840A970A44EA815447EA8357A4FBCF
:10050000076802958D0A05FB07854FEA932C04FBCB
:100510000C542705029D4FEA065847EA1637B5EBFB
:1005200008056EEB070C870E920E47EA811742EA28
:100530008312A7FB0201B6EB0B0164EB00042B0D49
:1005400043EA0C335E1844EB1C50DA465146E7FB95
:100550000201C5F313044FEA0B3343EA14534FEA85
:100560000432019C43EA0603A4F10C040294009CAB
:10057000CDE900B400F0ACF803B0BDE8F08F002086
:100580000146F9E700F0004230F000400AD0C10D0A
:1005900001F56071C0F3160042EA0151C20840073C
:1005A0001143704700200146704701F0004330B40A
:1005B00021F0004150EA010206D00A0DA2F5607256
:1005C000C1F31301002A02DC30BC00207047440F45
:1005D00044EAC104C100E01830BC00EBC25000F096
:1005E00031B8202A04DB203A00FA02F100207047DB
:1005F0009140C2F1200320FA03F319439040704761
:10060000202A04DB203A21FA02F00021704721FA67
:1006100002F3D040C2F120029140084319467047CE
:10062000202A06DBCB17203A41FA02F043EAE073B6
:1006300006E041FA02F3D040C2F1200291400843A3
:10064000194670470029A8BF7047401C490008BFE1
:1006500020F00100704710B4B0FA80FC00FA0CF0F2
:1006600050EA010404BF10BC704749B1CCF120042A
:1006700021FA04F411FA0CF118BF012121430843B7
:10068000A3EB0C01CB1D4FEA00614FEA102042BFE3
:10069000002010BC704700EBC35010440029A4BFD9
:1006A00010BC7047401C490008BF20F0010010BC7E
:1006B000704710B5141E73F1000408DA401C41F1B4
:1006C000000192185B411A4301D120F0010010BDD6
:1006D0002DE9F04D92469B4611B1B1FA81F202E04C
:1006E000B0FA80F220329046FFF77BFF04460F46B7
:1006F00040EA0A0041EA0B0153465A46084313D028
:10070000114653EA010019D0C8F140025046FFF7E4
:1007100077FF05460E46504659464246FFF761FFB1
:10072000084305D0012004E020463946BDE8F08D9D
:100730000020054346EAE0762C4337430A986305D8
:10074000E40AA0EB08000022FD0A44EA47540A30FC
:1007500002D500200146E9E7010510196941DDE9EC
:10076000084500196941BDE8F04DA2E72DE9F04DBB
:1007700000231A461B1A8A4103DB00200146BDE80C
:10078000F08DC1F30A52C1F3130141F480154FF00B
:10079000000BD10702D100186D41521E00270446FC
:1007A00040F2FF11384601EB620A3E46804602469F
:1007B00000204FF48011FFF723FFC2197141BB18CD
:1007C00046EB0100B4EB030C75EB000C04D3E41A08
:1007D00065EB000517460E46241908F101006D412E
:1007E00080463428E3DDF91946EB0600091BA841D1
:1007F00003D24FF0FF32134601E0002213461BEBF9
:10080000070046EB0A51BDE8F04DFFF752BF00006C
:10081000064C074D06E0E06840F0010394E807004D
:1008200098471034AC42F6D3FFF7B2FC9C5C00084A
:10083000BC5C000870B58C1810F8015B15F007035C
:1008400001D110F8013B2A1106D110F8012B03E069
:1008500010F8016B01F8016B5B1EF9D12B0705D471
:100860000023521E0DD401F8013BFAE710F8013BBA
:10087000CB1A921C03E013F8015B01F8015B521ED6
:10088000F9D5A142D8D3002070BD10B50146806BC8
:10089000026C12F0500F05D0026CD20626D500F083
:1008A00077FB10BD016C41F40071016401688A6836
:1008B00012F0405F17D1027EAAB9CA6A12F4700F13
:1008C00002D08A6852050ED44A6822F020024A609B
:1008D000016C21F480710164016CC90403D4016CC2
:1008E00041F00101016400F051FB10BD806BC26C4E
:1008F000BDE810400846104710B5806B40210164E8
:10090000416C41F00401416400F042FB10BD10B5A0
:10091000806B00F03CFB10BD464910B54A6822F4DC
:1009200040324A604A6843681A434A6001684A682C
:1009300022F480724A6001684A68036942EA03222D
:100940004A6001684A6822F040724A6001684A6859
:1009500083681A434A6001688A6822F400628A60E8
:1009600001688A68C3681A438A60816A6FF070629E
:10097000D14201688A6822F070628A6001688A68E0
:100980000CD0836A1A438A6001688A6822F0405258
:100990008A6001688A68C36A1A4301E022F0405203
:1009A0008A6001688A6822F002028A6001688A68A7
:1009B000037E42EA43028A6090F820100029016811
:1009C0004A680FD042F400624A6001684A6822F423
:1009D00060424A6001684A68174C436A04EB43333B
:1009E0001A4301E022F400624A600168CA6A22F4F4
:1009F0007002CA620168CA6A838B104C04EB03530D
:100A00001A43CA6201688A6822F400728A60016827
:100A10008A6890F8303042EA43228A6001688A6826
:100A200022F480628A6001688A68406942EA802014
:100A3000886010BD0023014000E0FFFF0000F0FFD0
:100A400030B52549254C0B468A6A5B6A012A04EBBE
:100A5000830501D01AB106E085ED000A03E085EDBB
:100A6000000A5B1C4B624B6A834201D0012A2FD1E2
:100A700000231A464B620BE004EB8205D1ED040A19
:100A800095ED000A521C30EE200A81ED040A4A62FC
:100A90008242F1DB00EE100AD1ED040A1A46B8EEEC
:100AA000C00A80EE801A81ED061A4B6208E000BF92
:100AB00004EB8203521C93ED010A83ED000A4A62A3
:100AC0008242F5DB01209FED060A81ED040A88626F
:100AD00091ED060A30BD000018000020B40100208E
:100AE0000000000030B52549254C0B468A6A5B6A38
:100AF000012A04EB830501D01AB106E085ED000A56
:100B000003E085ED000A5B1C4B624B6A834201D017
:100B1000012A2FD100231A464B620BE004EB820519
:100B2000D1ED030A95ED000A521C30EE200A81ED4A
:100B3000030A4A628242F1DB00EE100AD1ED030A99
:100B40001A46B8EEC00A80EE801A81ED051A4B6293
:100B500008E000BF04EB8203521C93ED010A83ED11
:100B6000000A4A628242F5DB01209FED060A81ED10
:100B7000030A886291ED050A30BD000018000020CC
:100B8000D40400200000000030B52549254C0B4658
:100B90008A6A5B6A012A04EB830501D01AB106E078
:100BA00085ED000A03E085ED000A5B1C4B624B6A91
:100BB000834201D0012A2FD100231A464B620BE059
:100BC00004EB8205D1ED070A95ED000A521C30EEC8
:100BD000200A81ED070A4A628242F1DB00EE100A28
:100BE000D1ED070A1A46B8EEC00A80EE801A81EDF0
:100BF000081A4B6208E000BF04EB8203521C93ED1D
:100C0000010A83ED000A4A628242F5DB01209FED72
:100C1000060A81ED070A886291ED080A30BD0000DE
:100C200018000020F40700200000000080ED050AF5
:100C3000D0ED000AD0ED061A90ED072A20EE801ABA
:100C4000D0ED010AD0ED0A2A00EEA11AD0ED020A79
:100C500000EE821A90ED032AD0ED090A02EE201A66
:100C600090ED042A02EE221A80ED081AC0ED0A0A5D
:100C700080ED091AC0ED071A80ED060A7047FEE7FD
:100C8000014800F0D9BB0000580C0020014800F0DA
:100C9000D3BB0000CC0E0020014800F0CDBB00000B
:100CA0002C0F002001681823CAB2103AB2FBF3F2ED
:100CB000054B6FF30901032A9B5CC36500D9091D2D
:100CC00081650846704700007854000810B5014659
:100CD00000208B698A6A4FF0C07453B1B3F5005F8E
:100CE00015D072B1012A0CD0022A0AD0032A09D1E8
:100CF00004E01AB1012A06D0022A03D1C96AC90147
:100D000000D5012010BDC96AA142FAD010BD002A49
:100D1000F7D0012AF2D0022AF3D0032AF3D010BD73
:100D200030B50468256825F4802525600468636073
:100D30008368402B036803D099600068C26030BDAF
:100D40009A600068C16030BD704700B502464FF43C
:100D50007A7302E0184600F003F8521EFAD200BD82
:100D600000EBC000C1004FF0E02041610021816133
:100D7000052101610169C903FCD5042101617047A6
:100D800072B6FEE710B5044605222649264800F053
:100D900079F924489FED251A254A018900EE101A99
:100DA000F8EE400A81EE200ADFED220A9FED221ABA
:100DB00020EE200ABDEEC00A10EE101AD160A1F696
:100DC000B83100EE101AF8EEC00AB0EE080A00EED4
:100DD000810A82ED020A018800EE901AF8EE601A8C
:100DE000DFED160A81EEA01A21EE000A84ED000A5A
:100DF000418800EE101AB8EE400A80EE201A92EDFB
:100E0000020A21EE001A84ED011A808801EE100A10
:100E1000B8EE411AC1EE201A21EE800A84ED020AD2
:100E200010BD0000140B0020100C0020009099450C
:100E30005C00002000007A446F12833A00F07F4586
:100E400078B50024009490F83C20012A19D00122A2
:100E500080F83C200A6807230568092A13D9EE6840
:100E60000A3A02EB420293409E43EE600B788A6896
:100E70000A3B03EB43039A400368DD682A43DA60C8
:100E800010E0022078BD2E6902EB420293409E439F
:100E90002E610B788A6803EB43039A4003681D694F
:100EA0002A431A614A681F23072A13D205686E6B0A
:100EB000521E02EB820293409E436E630B790A88B6
:100EC0005B1E92B203EB83039A4003685D6B2A4377
:100ED0005A6327E005680D2A12D22E6BD21F02EB4F
:100EE000820293409E432E630B790A88DB1F92B2E5
:100EF00003EB83039A4003681D6B2A431A6311E0D6
:100F0000EE6A0D3A02EB820293409E43EE620B7949
:100F10000A880D3B92B203EB83039A400368DD6AB3
:100F20002A43DA62164B0568144A9D4206D10D68C1
:100F3000122D03D1556845F48005556005689D4222
:100F400018D10B68102B01D0112B13D1536843F427
:100F500000035360096810290CD10A490A4A09683C
:100F6000B1FBF2F101EB8101490000E0491E009163
:100F70000029FBD180F83C40002078BD00230140CF
:100F800000200140DC00002040420F007047704705
:100F9000704770B504004FF0000503D0206C0026A8
:100FA00010B107E0012070BD204600F01DF8666416
:100FB00084F83C60206CC00610D4206C20F488506B
:100FC00040F0020020642046FFF7A6FC6664206C17
:100FD00020F0020040F00100206400E0012584F8C8
:100FE0003C60284670BD000070B586B006461421EE
:100FF0006846FFF7A3F91E493068884235D11D487D
:101000000025016841F480710160006800F480707F
:10101000059018481438016841F00101016000682A
:10102000694600F0010005900F2000900320CDE9F3
:101030000105114800F084FB114C1048C4E900057B
:101040000015A560C4E90350400060618000A06104
:101050004011E0614002C4E90805204600F0BCFAF6
:1010600008B1FFF78DFEB463A66306B070BD000043
:101070000020014044380240000002401064024059
:10108000580C0020F8B5044600200E46009094F855
:101090003C10012907D0012184F83C1021688B689D
:1010A000DB0702D011E00220F8BD8B6843F001039A
:1010B0008B604049404B0968B1FBF3F101EB410102
:1010C00000E0491E00910029FBD121688B68DB05F7
:1010D00003D58B6823F480738B6021688B68DB07F2
:1010E0005DD0236C40F20165AB4343F4807323640D
:1010F0004968490505D5216C21F4005141F480511E
:101100002164216CC90404D5616C21F0060161647D
:1011100000E0606484F83C00A16B2948274DC86357
:10112000A16B28480864A16B2748C86421686FF048
:10113000220008602068416841F0806141602068B9
:10114000816841F4807181602168134632464C31D8
:10115000A06B00F0ABFA68681C49C006206806D096
:10116000884224D1816811F0405F13D01FE088428B
:10117000F8D0174A904203D1D1F80423D206F1D017
:10118000144A904213D1D1F8041301F01F01102921
:10119000E8D30CE0816841F08041816007E0206C79
:1011A00040F010002064606C40F00100606400209A
:1011B000F8BD0000DC00002040420F000023014089
:1011C0008B0800080F090008F908000800200140FA
:1011D0000021014000220140704770B54379012B86
:1011E0001CD0012646710223037105682B6802F0AA
:1011F000100440F6FE72A2409343D1E900210A4355
:10120000A2401A432A6001680A68C023A3409A4397
:101210000A60067100214171084670BD022070BD50
:10122000704770B50446006801684FF004058904F2
:1012300011D5416B89040ED52571216941F0010159
:101240002161E90241632068016821F48051016055
:101250002046FFF7E5FF20680168890014D5416B3F
:10126000890011D52571216941F0020121614FF0FA
:10127000005141632068016821F0805101602046DF
:10128000BDE87040FFF7A8BF70BD70B5040003D083
:101290002079002510B105E0012070BD6571204660
:1012A00000F008F802202071256101202071002043
:1012B00070BD000010B586B0044614216846FFF7E3
:1012C0003DF815492068884224D11448002102685D
:1012D00042F000520260006800F0005005900F4894
:1012E0001038026842F001020260006800F001005C
:1012F0000590102000900320CDE9010169460848BF
:1013000000F01EFA00221146362000F019FD3620AA
:1013100000F008FD06B010BD0074004040380240E7
:101320000000024070B54279012A1ED001224271AC
:10133000022303710468266801F0100302FA03F522
:101340002E4326600029016811D00C6804F4701542
:101350003C249C40A54203D14B6843F002034B6000
:10136000027100214171084670BD022070BD0B68FA
:10137000C3F383030F2BF3D14B6843F00103EEE774
:101380002DE9F0410446876D00F0DCFA064694F83A
:1013900035000025022806D08020606584F834508E
:1013A0000120BDE8F0812068016821F0160101608C
:1013B0002068416921F080014161206C08B9A06C6E
:1013C00020B12068016821F00801016020680168EF
:1013D00021F0010101600CE000F0B4FA801B052847
:1013E00007D920206065032084F8350084F8345044
:1013F000D7E720680068C007EED194F85C103F2062
:101400008840B860012084F8350084F8345000200A
:10141000C7E790F83510022903D0802141650120EB
:101420007047052180F835100068016821F001013E
:1014300001600020704700002DE9F84304464FF09A
:101440000009CDF8009063484FF41651A56D00686F
:10145000B0FBF1F72E6894F85C10082000FA01F157
:1014600031420FD021680A6852070BD50A6822F072
:1014700004020A6094F85C108840A860606D40F037
:101480000100606594F85C104FF0010808FA01F063
:10149000304208D021684969090604D5A860606D0A
:1014A00040F00200606594F85C10042088403042EF
:1014B00008D021680968890704D5A860606D40F0EC
:1014C0000400606594F85C1010208840304218D009
:1014D00021680968090714D5A860206801684903D4
:1014E00004D50068000308D5A16C07E00168C905B0
:1014F00003D4016821F008010160216C09B1204684
:10150000884794F85C1020208840304231D0216810
:101510000968C9062DD5A86094F83500052820680B
:10152000016806D0490347D5006800031DD4616CEB
:101530001CE021F0160101602068416921F0800162
:101540004161206C08B9A06C20B12068016821F0CD
:101550000801016094F85C103F208840A86084F87E
:10156000358084F83490216D1FE0E16B09B120468D
:101570008847606D00282BD0606DC00714D005200F
:1015800084F835002068016821F0010101600098AD
:10159000401C0090B84203D820680068C007F6D10C
:1015A00084F8358084F83490E16C002910D001B0C3
:1015B0002046BDE8F04308470168C905D5D4016855
:1015C00021F01001016084F8358084F83490CCE774
:1015D000BDE8F883DC0000202DE9F041044600F06E
:1015E000B1F906465CB1022084F83500002584F884
:1015F00034502068016821F0010101600DE00120F4
:10160000BDE8F08100F09EF9801B052805D9202057
:101610006065032084F83500F2E720680068C007A1
:10162000F0D12268116820480140D4E90103184331
:10163000D4E903363343184363691843A369184355
:10164000E3691843236A18430843616A042903D1F4
:10165000D4E90B1319430843106020684069666A97
:1016600020F0070130460E43012704280CD1A06A60
:101670000643E06A40B12046FFF728FB20B1402036
:10168000606584F83570BAE7206846612046FFF748
:1016900009FB94F85C203F2191408160656584F8E6
:1016A00035700020ACE700003F8010F02DE9F041DC
:1016B0000446866D90F83400002501280DD00120E5
:1016C00084F8340094F835700020012F07D084F896
:1016D000340002252846BDE8F0810220FBE70227FE
:1016E00084F8357060652046FFF71AFB94F85C10AB
:1016F0003F208840B0602068016841F01601016019
:10170000206C20B12068016841F008010160206868
:10171000016841F001010160DCE7000070B504469A
:1017200000F010F90546601C02D00448007804441B
:1017300000F008F9401BA042FAD370BDD000002091
:101740002DE9F84FDFF8BCA10022012503264FF058
:101750000F090AF1040BAAF1040E00BF0B6805FA89
:1017600002F42340A34270D10F7907F00307012F41
:1017700001D0022F16D187684FEA420806FA08FC0A
:1017800027EA0C07D1F80CC00CFA08FC4CEA070C4D
:10179000C0F808C04768A7430C79C4F3001494400C
:1017A0003C4344600C79E443A4070AD0C4684FEA80
:1017B000420C06FA0CF7BC438F6807FA0CF7274374
:1017C000C7600C7904F00304022C12D1D40800EB9A
:1017D000840CDCF820405707FF0E09FA07F824EACA
:1017E0000804D1F8108008FA07F848EA0408CCF891
:1017F000208004684FEA420C06FA0CF7BC430F79CC
:1018000007F0030707FA0CF7274307604C6814F446
:10181000403F70D03C4C276847F4804727602468DD
:1018200022F0030704F480440094384C07EB040CC6
:10183000DCF8084897074FEA177809FA08F7BC431D
:10184000334FB84202D1002724E054E0314FB84270
:1018500001D101271EE0304FB84201D1022719E023
:101860002E4FB84201D1032714E02D4FB84201D1C9
:1018700004270FE02B4FB84201D105270AE02A4F79
:10188000B84201D1062705E0284FB84201D1072709
:1018900000E0082707FA08F72743CCF80878DAF8B9
:1018A00000405746D1F804C09C435FEACC2C00D5D9
:1018B0001C433C60DBF800405F46D1F804C09C4309
:1018C0005FEA8C2C00D51C433C60DEF80040774674
:1018D000D1F804C09C435FEA8C3C00D51C433C60BB
:1018E000084F083F3C68D1F804C09C435FEACC3CF9
:1018F00000D51C433C60521C102AFFF42FAFBDE8FA
:10190000F88F0000083C014044380240003001409C
:10191000000002400004024000080240000C0240A7
:10192000001002400014024000180240001C024057
:101930000069084000D0012070470AB181617047FA
:101940000904FBE70148806870470000D0000020D0
:1019500070B5040025D094F83D00002520B984F826
:101960003C50204600F050F9242084F83D002068C7
:10197000016821F0010101602068016841F4004123
:1019800001602068016821F40041016000F0A4FAC0
:101990004D4A6168914201D84C4900E04C49884267
:1019A00001D2012070BD4B492368B0FBF1F15E68A4
:1019B00026F03F060E435E606368934206D94FF4FB
:1019C000967359434FF47A73B1FBF3F12368491CC2
:1019D0001E6A26F03F06314319626168914210D8B1
:1019E0004900401EB0FBF1F2521CC2F30B02042A64
:1019F00001D2042022E0B0FBF1F0401CC0F30B0048
:101A00001CE0A268F2B301EBC10303EB0116431E15
:101A1000B3FBF6F35B1C43F480431B0549D092B340
:101A200001EBC10202EB0111401EB0FBF1F0401CC2
:101A3000C0F30B0040F4804040F400402168CA69C4
:101A40004CF6FF739A431043C861D4E90710014371
:101A50002068026822F0C00211430160D4E903014A
:101A600001432068826848F2FF339A431143816042
:101A7000D4E9050108432168CA6822F0FF02104337
:101A8000C86001E00EE016E02068016841F0010145
:101A900001602564202084F83D00256384F83E50D1
:101AA000002070BD01EB4106431EB3FBF6F35B1C47
:101AB000B3E70120C2E701EB4101401EB0FBF1F0AA
:101AC000401CC0F30B00B7E7A086010080841E0015
:101AD00000093D0040420F002DE9FF4F83B09A46B8
:101AE000DDE9119793460446DDF84080FFF72AFFB1
:101AF000054694F83D0020287FD119230122404952
:101B00002046009501F014FC002876D194F83C00A2
:101B1000012872D0012084F83C0020680168C907C0
:101B200003D1016841F0010101602068016821F4DE
:101B300000610160212084F83D00402084F83E00CF
:101B400000262664C4F82480A4F82A90608D20859D
:101B50002C48E062CDE9007553465A462046049968
:101B600001F06CFB70B930E02A463946204601F09E
:101B70005EFC58B1206C042804D12068016841F44F
:101B800000710160012007B0BDE8F08F606A216834
:101B900000780861606A401C6062218D491E89B22C
:101BA0002185628D521E628522685369DB435B0783
:101BB0000BD469B100781061606A401C6062208DAE
:101BC000401E2085608D401E6085208D0028CBD171
:101BD0002A463946204601F085FB0028CAD154F830
:101BE0003D0B016841F400710160202004F81E09DA
:101BF000E67766770020C6E7FFE70220C3E700002C
:101C0000020010000000FFFF10B586B0044614214A
:101C10006846FEF793FB13492068884220D112489A
:101C20000021026842F002020260006800F0020037
:101C30000590C02000901220CDE9010103200390FF
:101C40000420049069460948FFF77AFD06481030E1
:101C5000016841F400110160006800F40010059073
:101C600006B010BD0054004030380240000402406D
:101C7000024881680278114481607047D0000020DA
:101C80000B4810B5016841F400710160016841F42E
:101C900080610160016841F480710160032000F0FF
:101CA0006FF80F2000F006F800F024F8002010BDB7
:101CB000003C024070B50D4D04464FF47A7128780F
:101CC000B1FBF0F00A490968B1FBF0F000F00AFB43
:101CD00048B9102C07D200222146501E00F030F8DF
:101CE00000206C6070BD012070BD0000D00000209D
:101CF000DC0000200A4808B5016841F48041016019
:101D0000006800F4804000900548001F016841F021
:101D100080510160006800F08050009008BD000014
:101D200044380240002809DB00F01F0201219140E5
:101D30004009800000F1E020C0F800117047000069
:101D4000F0B40E4B1B680C46C3F30223C3F1070526
:101D5000042D00D90425191D072901D2002300E014
:101D6000DB1E012606FA05F1491E214099409E40DE
:101D7000761E16403143F0BC02F05ABD0CED00E077
:101D8000064900F0070208684FF6FF03184040EAD2
:101D90000220034A10430860704700000CED00E089
:101DA0000000FA052DE9F0470E46050065D0DFF882
:101DB0001481D8F80000F7B200F00700B04207D253
:101DC00088F80070D8F8000000F00700B04254D145
:101DD00028683D4C810712D5400703D5206840F4A0
:101DE000E05020602878000703D5206840F4604068
:101DF00020602068A96820F0F0000843206028785F
:101E0000C0072DD0304968680839012812D002284F
:101E100013D0032811D00968890700292DDA216819
:101E200021F0030101432160FFF78CFD814641F25F
:101E3000883A0EE009688903EFE709688901ECE751
:101E4000FFF780FDA0EB0901514502D90320BDE851
:101E5000F0872068696800F00C00B0EB810FEFD1CB
:101E6000D8F80010404601F00701B14207D90770C9
:101E7000006800F00700B04201D00120E7E72878B1
:101E8000400705D52068E96820F4E0500843206049
:101E90002878000706D52068296920F4604040EAC8
:101EA000C100206000F038F82168084AC1F303112E
:101EB000515CC8400649086006480068FFF7FAFE12
:101EC0000020C4E7003C024008380240805400086B
:101ED000DC000020D400002004480549006809689F
:101EE000044AC1F38221515CC8407047DC000020E5
:101EF0000838024090540008044805490068096801
:101F0000044AC1F34231515CC8407047DC000020F4
:101F10000838024090540008154810B5006810F0C9
:101F20000C02144813D04110042A0FD0082A0ED1F5
:101F30000F4C241F2268236802F03F025B0207D582
:101F40002068C0F38810A0FB010106E0084610BD20
:101F50002168C1F38811A1FB00010023FEF7B6F947
:101F60002168C1F30141491C4900B0FBF1F010BDEB
:101F7000083802400024F4002DE9F84F04006ED028
:101F80002078DFF84C93C007A9F104054AD009F185
:101F900004000168C1F38101012908D00068C0F381
:101FA000810002280AD1D9F80000400206D528682D
:101FB000800337D560680028E1D033E06068B0F571
:101FC000803F10D0B0F5A02F286810D020F48030CA
:101FD0002860286820F4802028606068A8B1FFF796
:101FE000B1FC06460DE0286840F48030F4E740F488
:101FF00080202860F7E700BFFFF7A4FC801B64285F
:1020000073D828688003F7D50CE0FFF79BFC0646E1
:1020100005E000BFFFF796FC801B6428F0D8286815
:102020008003F7D42078DFF8AC8280074FF0000AF5
:102030003ED5A748001D016811F00C0F08D00068BC
:10204000C0F3810002280BD1D9F80000400207D468
:102050002868800716D5E068012800D112E033E136
:10206000E068B8B10120C8F80000FFF76BFC064635
:1020700005E000BFFFF766FC801B0228C0D8286877
:102080008007F7D52868216920F0F80040EAC100F0
:1020900028600DE0C8F800A0FFF754FC064604E0F5
:1020A000FFF750FC801B02281FD828688007F7D450
:1020B0002078000722D5864F87486169703771B153
:1020C00001210160FFF73EFC064604E0FFF73AFC01
:1020D000801B022809D838688007F7D50EE0C0F8C1
:1020E00000A0FFF72FFC064605E082E0FFF72AFC80
:1020F000801B02287DD838688007F7D420784007F5
:1021000068D5DFF8CCB100270BF13C0BDBF8000001
:10211000C0000BD4DBF8001041F08051CBF8001068
:10212000DBF80000012700F0805000906B4E306813
:10213000C00510D4306840F480703060FFF702FCB6
:10214000009005E0FFF7FEFB0099401A022850D8E6
:102150003068C005F6D55E4EA0686C3601280FD0F9
:102160000528306810D020F001003060306820F081
:1021700004003060A068B8B1FFF7E4FB00900FE006
:10218000306840F00100F4E740F004003060F7E709
:10219000FFF7D8FB0099411A41F28830814266D896
:1021A00030688007F4D50EE0FFF7CCFB009007E025
:1021B000FFF7C8FB0099411A41F28830814256D896
:1021C00030688007F4D42FB1DBF8001021F0805183
:1021D000CBF80010A069C8B33D49091D0968C1F3D7
:1021E000810102294AD00228504607D0C8F8600071
:1021F00000E03CE0FFF7A6FB04463BE04746C8F89A
:102200006000FFF79FFB064605E000BFFFF79AFB63
:10221000801B02282BD828688001F7D4D4E9070155
:102220000843A16A2E4A490802EB0141626A41EA69
:102230008211084394F82C1040EA0161C9F800109B
:1022400001203866FFF77EFB044606E03EE000BF53
:10225000FFF778FB001B022809D828688001F7D512
:1022600034E000BFFFF76EFB001B022802D90320F9
:10227000BDE8F88F28688001F4D427E00128F7D062
:10228000D9F80000E26900F4800191421CD1226A71
:1022900000F03F01914217D147F6C071626A0140D8
:1022A000B1EB821F10D1A26A4FF0FF3300F440312E
:1022B00003EB5202B1EB024F06D194F82C1000F060
:1022C0007060B0EB016F01D00120D1E70020CFE7B3
:1022D0000438024000004742800E47420070004030
:1022E0000000FFFF10B5401EB0F1807F01D3012038
:1022F00010BD4FF0E02460610F21601702F098FAE2
:102300000020A06107202061002010BD70477047A9
:1023100010B590F83C20012A22D0012280F83C2000
:10232000CA688C6822F4407222434C6822F48062AE
:1023300022430C6822F4006222430C6922F480528A
:1023400022434C6922F400522243C969002322F43B
:1023500080420A4301684A6480F83C30002010BD86
:10236000022010BD70B590F83C20012A32D0012423
:1023700080F83C40022280F83D2003685A689D683E
:1023800022F070060A6832435A60134B02689A4280
:1023900014D0B2F1804F11D0104B9A420ED0104B96
:1023A0009A420BD00F4B9A4208D00F4B9A4205D05D
:1023B0000E4B9A4202D00E4B9A4204D1496825F046
:1023C00080031943916080F83D40002180F83C1063
:1023D000084670BD022070BD0000014000040040AE
:1023E00000080040000C0040000401400040014093
:1023F0000018004010B5040003D094F83D0010B15F
:1024000007E0012010BD002084F83C00204600F0C9
:102410001FF8022084F83D00211D206801F05EFFB6
:10242000012084F8460084F83E0084F83F0084F8D8
:10243000400084F8410084F8420084F8430084F8A6
:10244000440084F8450084F83D00002010BD0000E1
:1024500008B501683C48814227D13C48016841F0F9
:10246000010101600068002200F0010000901146A7
:102470001820FFF765FC1820FFF754FC00221146D6
:102480001920FFF75DFC1920FFF74CFC00221146D4
:102490001A20FFF755FC1A20FFF744FC00221146D2
:1024A0001B20FFF74DFC1B2048E02848001FB1F11E
:1024B000804F11D0264A91421DD1016841F002019E
:1024C00001600068002200F00200009011461D200B
:1024D000FFF736FC1D2031E0016841F00101016089
:1024E0000068002200F00100009011461C20FFF758
:1024F00027FC1C2022E0174A91420ED1016841F0CE
:10250000040101600068002200F004000090114600
:102510001E20FFF715FC1E2010E00F4A914211D13A
:10252000016841F0100101600068002200F0100015
:10253000009011463620FFF703FC3620BDE8084026
:10254000FFF7F0BB08BD0000000001404438024026
:1025500000040040000800400010004090F83D10CA
:10256000012901D001207047022180F83D10016847
:10257000CA6842F00102CA6000681149884214D05A
:10258000B0F1804F11D00F4988420ED00E498842D9
:102590000BD00E49884208D00D49884205D00D491C
:1025A000884202D00C49884204D1816801F00701B9
:1025B000062903D0016841F0010101600020704745
:1025C000000001400004004000080040000C0040F2
:1025D00000040140004001400018004070B504466E
:1025E00090F83C000025012817D0012684F83C60B3
:1025F000022084F83D002068826822F0770222F4ED
:102600007F4282600868502838D00DDC20284FD0E7
:1026100005DC90B3102811D14AE0022070BD3028AB
:1026200046D040280AD13BE060282FD070280DD03A
:10263000B0F5805F03D0B0F5005F12D0012584F8BB
:102640003D60002084F83C00284670BDCB68D1E98D
:102650000121206801F0B3FE2068816841F0770114
:1026600009E0CB68D1E90121206801F0A8FE2068CB
:10267000816841F480418160E1E719E0CA684968F6
:10268000206801F071FF5021206806E0CA6849689F
:10269000206801F07AFF6021206801F09AFECEE701
:1026A000CA684968206801F05FFF40212068F4E7AC
:1026B000226801461046F0E7704770B5044600688E
:1026C00001694FF00005C943890715D4C168C943A2
:1026D000890711D4E91E01610120207720688069F3
:1026E0008007204602D0FFF7E7FF04E000F0C2F8C1
:1026F000204600F054F9257720680169C94349074D
:1027000017D4C168C943490713D46FF004010161AC
:10271000022020772068806910F4407F204602D094
:10272000FFF7CAFF04E000F0A5F8204600F037F9F3
:10273000257720680169C943090716D4C168C943D0
:10274000090712D46FF00801016104202077206886
:10275000C0698007204602D0FFF7AEFF04E000F01A
:1027600089F8204600F01BF9257720680169C943E4
:10277000C90617D4C168C943C90613D46FF0100144
:102780000161082020772068C06910F4407F20464E
:1027900002D0FFF791FF04E000F06CF8204600F053
:1027A000FEF8257720680169C943C90708D1C168C7
:1027B000C943C90704D1891E0161204600F054F9BC
:1027C00020680169C943090609D4C168C9430906DB
:1027D00005D46FF0800101612046FFF797FD206866
:1027E0000169C943490609D4C168C943490605D4EA
:1027F0006FF040010161204600F028FB206801696C
:10280000C94389060BD4C168C943890607D46FF050
:10281000200101612046BDE87040FFF778BD70BD22
:1028200010B586B0044614216846FDF787FD0E49B1
:102830002068884216D10D480021026842F010023B
:102840000260006800F0100005904FF428500090DE
:102850000220CDE901010120CDE9031069460448B9
:10286000FEF76EFF06B010BD000001403038024098
:1028700000100240704770B5044690F83C000026F6
:102880000D4601280FD0012084F83C006AB1042ACB
:102890001DD0082A2FD00C2A3FD00126002084F812
:1028A0003C00304670BD022070BD206801F09AFDEA
:1028B0002068816941F0080181612068816921F007
:1028C00004018161206881692A69114311E020684F
:1028D00001F0B8FD2068816941F4006181612068E0
:1028E000816921F480618161206881692A6941EAF6
:1028F00002218161D2E7206801F0DAFD2068C16918
:1029000041F00801C1612068C16921F00401C16181
:102910002068C1692A69114311E0206801F0FCFDBB
:102920002068C16941F40061C1612068C16921F476
:102930008061C1612068C1692A6941EA0221C161DF
:10294000ACE710B5040003D094F83D0010B107E0E7
:10295000012010BD002084F83C00204600F01EF845
:10296000022084F83D00211D206801F0B7FC012001
:1029700084F8460084F83E0084F83F0084F8400064
:1029800084F8410084F8420084F8430084F844004D
:1029900084F8450084F83D00002010BD7047704762
:1029A00010B50446022249B104290ED0082913D0DB
:1029B00094F84100012816D0012010BD94F83E0083
:1029C0000128F9D184F83E200FE094F83F00012857
:1029D000F2D184F83F2008E094F840000128EBD1C0
:1029E00084F8402001E084F841200122206801F0B1
:1029F000D9FC16492068164A884201D0904203D17A
:102A0000436C43F4004343642068884213D0B0F120
:102A1000804F10D00F4988420DD00F4988420AD00C
:102A20000E49884207D0904205D00D49884202D015
:102A30000C49884204D1816801F00701062903D0BE
:102A4000016841F001010160002010BD000001405B
:102A5000000401400004004000080040000C004059
:102A600000400140001800402DE9F04106462DEDE0
:102A70000A8BD548D54D86423DD1DFEDD50AB7EE5C
:102A8000000A42F2107001F063FA2846FEF77AF964
:102A900095ED000A0A20FEF725F885ED060A95ED6A
:102AA000010A0A20FDF7CCFF85ED070A95ED020A21
:102AB0000A20FEF769F885ED080A95ED061ADFEDA4
:102AC000C50A71EE601A9FEDC41A30EE600A81EEFD
:102AD000812AC0EE010A85ED0C2AC5ED0E0A95ED9E
:102AE000070ADFEDBE0A30EE600ADFEDBD0A80EEB8
:102AF000201A85ED0D1ABB4886420DD195ED0C0AC2
:102B0000B248B1EE400A5C3801F098FAAF4895ED52
:102B10000D0A743801F0B4F9B348DFF8D082B44C30
:102B200086427DD1207800287AD1A848743890ED6B
:102B3000052AB1EE420A84ED0B0AD4ED0C1ADFED42
:102B4000AD2AAD4940EE221AC4ED0C1A90ED043ABC
:102B5000D4ED040A11EE900A30EEC31A84ED0D1A7A
:102B6000D4ED0E0A41EE220AC4ED0E0ADFEDA31ADF
:102B7000884201DDC4ED0C1AA148DFEDA22A226BC8
:102B8000824201D9C4ED0C2A10EE902A8A4201DD5E
:102B9000C4ED0E1AA16B814201D9C4ED0E2ADFEDFE
:102BA0009A1AD4ED0E2A21EE211ADFED980A8748F1
:102BB00002EEA01A5C38D0ED042A71EE222A9FEDB5
:102BC000941A20EE210A934F42EE412AC4ED102AB6
:102BD000D4ED0C1A01EEA00A13EE010A84ED110ADD
:102BE00097ED000ADFED8C8A20EE280AFDF7E8FA5F
:102BF000D4ED100A20EE208A97ED000A20EE280A74
:102C0000FDF71AFBD4ED110A4FF07E5100EE808AD9
:102C1000F7EE000A84ED0F8AA86B884203DC00E01F
:102C200045E0C5ED0E0A95ED0E1A88EE010A10EE8C
:102C3000100A84ED080A884201DDC4ED080A206A02
:102C400010F1814F03D9BFEE000A84ED080AD4EDDC
:102C5000081A9FED720A21EE802ADFED710AB6EEA6
:102C6000000AB0EE601A02EE001A94ED052A21EE79
:102C7000001A21EE021A84ED0A1ADFED6A2A61EECB
:102C8000A21A41EE800A20EE800A20EE020A84EDAC
:102C9000090ABCEEC00AD8F8002010EE101A9163A1
:102CA000BCEEC10AD8F8000010EE101AC1635E48ED
:102CB00086427CD12078012879D1A088401C80B23E
:102CC000A08095ED0C0AD4ED060AB0F5C87F40EE61
:102CD000000AC4ED060A16D10020A0809FED530A19
:102CE00020EE800A10EE100AFDF74CFC41EC100BB0
:102CF00001F0AEFD51EC100BFDF757FC9FED4C0AB7
:102D0000A06084ED060A3148D4ED020A94ED030A6E
:102D1000583001F027FA2D48D4ED079A583090ED3D
:102D200003CA2CEE290A10EE100AFDF72BFC9FEDCA
:102D3000418B53EC182BFDF7B3FB9FED40AB53ECED
:102D40001A2BFDF7ADFB9FED3FBB53EC1B2BFDF7A3
:102D500000FB53EC182BFDF7A3FBFDF726FC2CEE34
:102D6000690A09EE100A84ED099A10EE100AFDF7BF
:102D700009FC53EC182BFDF793FB53EC1A2BFDF7D2
:102D80008FFB53EC1B2BFDF7E4FA53EC182BFDF7EC
:102D900087FBFDF70AFC00EE100AFCEEC90A84ED81
:102DA0000A0AD8F8002010EE901A916300E006E0BD
:102DB000BCEEC00AD8F8000010EE101AC163BDECDA
:102DC0000A8BBDE8F0810000B00D0020940B0020BC
:102DD000D7B3DD3F85EBD13F787A253C46B6D33F6C
:102DE000CDCCCC3E680D0020400E0020200D0020F0
:102DF0007800002017B75138CDCC4C3FCDCC4C3F9C
:102E0000CDCC4CBFCDCC4CBFCDCCECC09A9999BEAB
:102E10007BD9203FB40F0020DA0F49400020004644
:102E200000208045002000C6F80D00200AD7233B73
:102E300000000000000000000000E03F0000000073
:102E40000068C040000000000068B0407047704754
:102E500070470000F8B5016804460868CA684B6905
:102E600010F00F0F4FF0000559D003F0010602F4E7
:102E70009077374365D0C10705D0D10503D5216CC4
:102E800041F001012164410705D5D90703D0216C28
:102E900041F002012164810705D5D90703D0216CD7
:102EA00041F004012164010707D502F020013143FC
:102EB00003D0216C41F008012164216C00293AD033
:102EC000800604D5900602D5204601F09FFB2068BD
:102ED0004069216CC0F38010090700D460B320461C
:102EE00001F06DFB20684069400621D52068143050
:102EF00050E8001F21F0400140E80012002AF5D1FF
:102F0000A06BA8B16C490165A06BFEF782FA00289E
:102F100011D0A06B016D01B0BDE8F04008478306F9
:102F20000FD593060DD52046BDE8F84001F06EBBE5
:102F30002046FFF78DFFF8BD2046FFF789FF256487
:102F4000F8BD266B2023012E79D1C60677D5D6068B
:102F500075D50868486800904869400640D5A16B5F
:102F6000086840680004000CEAD0A28D8242E7D9CC
:102F7000E085C869B0F5807F2DD020680C3050E81E
:102F8000001F21F4807140E80012002AF5D120686A
:102F9000143050E8001F21F0010140E80012002A1F
:102FA000F5D12068143050E8001F21F0400140E8BE
:102FB0000012002AF5D184F83E30256320680C30D9
:102FC00050E8001F21F0100140E80012002AF5D15E
:102FD000A06BFEF7D5F9A08DE18D401A81B229E0F2
:102FE000A08DE18D401A81B2E08D0028A8D0002983
:102FF000A6D020680C3050E8002F22F4907240E8F0
:103000000026002EF5D12068143050E8002F22F061
:10301000010240E80026002EF5D184F83E302563F9
:1030200020680C3050E8002F22F0100240E8002306
:10303000002BF5D12046FFF70AFFF8BDFFE7050694
:103040002BD5150629D594F83D002128F5D1A06887
:10305000B0F5805F01D12069B0B1206A411C2162C6
:10306000216800784860E08C401E0004000CE08479
:10307000E3D12068C16821F08001C1602068C16887
:1030800041F04001C160D8E7206A0088C0F3080021
:103090004860206A801C2062E5E74006CDD55006D6
:1030A000CBD5CA68204622F04002CA6084F83D3081
:1030B00000F0ABF8C1E70000AF45000870B50400B0
:1030C00004D094F83D00002510B106E0012070BD49
:1030D00084F83C50204600F023F8242084F83D007A
:1030E0002068C16821F40051C160204601F0EEFA69
:1030F0002068016921F4904101612068416921F053
:103100002A0141612068C16841F40051C160256411
:10311000202084F83D0084F83E00002070BD0000AF
:103120002DE9F04186B0064614216846FDF706F900
:1031300030493068884259D12F480024016841F055
:1031400010010160006800F0100005902A48143852
:10315000016841F0010101600068694600F001006A
:1031600005904FF4C06000900220CDE901040320D7
:103170000390072004902148FEF7E2FA214D2048F1
:103180004FF000672860C5E901744FF48068C5E915
:1031900003486C61AC61EC612C6228466C62FEF7FE
:1031A0001BFA08B1FDF7ECFDB563AE63154D14488D
:1031B00060357830E5E802074020A5E811011148A4
:1031C00045F814496030AC61EC612C626C62FEF72A
:1031D00003FA08B1FDF7D4FD7563002211462520DE
:1031E000AE63FEF7ADFD2520FEF79CFD06B0BDE801
:1031F000F08100000010014044380240000002400D
:1032000040640240CC0E002070477047FEE7016822
:103210004A69D24352050FD46FF480624A6100219B
:1032200040F8301F202242738173026942F0040289
:103230000261017301207047002070472DE9F843B7
:10324000044600680D46DDE9089701689846164671
:1032500041F4807101604B4600224FF0011120467D
:10326000009700F065F848B120680068C00502D5F5
:103270004FF4007020640320BDE8F883216805F056
:10328000FE0008613B464A461549204600F084F896
:1032900088B920684169806900903A4649462046CD
:1032A00000F0C5F848B1206C042804D120680168FA
:1032B00041F4007101600120DEE7F5B2B8F1010FC1
:1032C00009D02168300A08613A464946204600F094
:1032D000AEF80028E7D1206805610020CCE70000A7
:1032E0000200010070B516460D4604460DE020466A
:1032F000FFF78DFF08B1012070BD681C05D0FEF7F7
:1033000021FB801BA84207D835B120684069C04323
:103310004007ECD4002070BD002044F8300F20217D
:103320006173A073216941F0200121612073E2E7FC
:103330002DE9F0471E4690460D460446C1F3074767
:10334000DDF8209008E0701C06D0FEF7FBFAA0EB39
:103350000900B0420FD876B12068012F18D08069DB
:1033600025EA00000004000C14D000214145EAD0F9
:103370000020BDE8F087002044F8300F2021617361
:10338000A073216941F02001216120730120F0E741
:103390004069E5E70121E9E72DE9F0479A469146C2
:1033A0000E46044600254FF02008C1F3074725E0EC
:1033B00020684069C043400514D42068016841F486
:1033C0000071016021686FF480604861256384F8B2
:1033D0003D8084F83E50206C40F00400206484F866
:1033E0003C501FE0B9F1FF3F08D0FEF7ABFAA0EB6D
:1033F0000A0149450CD8B9F1000F09D02068012F06
:1034000013D0806926EA00000004000C0BD0CFE73F
:1034100044F8305F84F80D80A573206940F02000E7
:10342000206125730120BDE8F0874069EAE770B5A7
:1034300016460D4604460DE02046FFF7E8FE08B1AB
:10344000012070BD681C05D0FEF77CFA801BA842E5
:1034500007D835B120684069C0430006ECD400208D
:1034600070BD002044F8300F20216173A0732169E2
:1034700041F0200121612073E2E700002DE9F047CF
:103480000026234C234F01254FF480584FF48079B8
:1034900008B1257001E0207848B141463846FEF772
:1034A00047FA58B149463846FEF742FA30B141462C
:1034B0003846FEF73DFA01281ED026E0D4E9011077
:1034C000084304D14FF4FA70FDF73FFC65600A2011
:1034D000FDF73BFC267041463846A660FEF728FA09
:1034E00028B149463846FEF723FA18B10DE001200D
:1034F000BDE8F0870220FBE749463846FEF718FA98
:10350000012802D12570C4E901650020F0E7000020
:103510006C000020000002402DE9F04701262F4DED
:10352000DFF8BC802F4CF7024FF4007908B16E70C1
:1035300001E0687898B139464046FEF7F9F9A8B13C
:1035400049462046FEF7F4F980B120212046FEF7D7
:10355000EFF958B102212046FEF7EAF930B13946B9
:103560004046FEF7E5F9012823D035E00A20FDF7B3
:10357000ECFB0020687039464046FEF7D9F978B177
:1035800049462046FEF7D4F968B120212046FEF7CF
:10359000CFF950B102212046FEF7CAF938B11BE03D
:1035A0000320BDE8F0870420FBE70520F9E70620AB
:1035B000F7E749462046FEF7BBF901280CD1202148
:1035C0002046FEF7B5F9012806D102212046FEF774
:1035D000AFF9012800D16E700020E2E76C000020F6
:1035E00000000240000402407FB5002529480095F4
:1035F0000195029526490395016001244FF480311D
:103600000461C0E90115057680F820502249C0E91F
:103610000A150526C661C56080F830404461FDF793
:10362000B8FC08B1FDF7ACFBCDE9005402256946B2
:1036300018480295FDF704FC08B1FDF7A1FB6946A7
:103640001448CDE90045FDF7FBFB08B1FDF798FBF9
:103650000324CDE9005469460E48FDF7F1FB08B19B
:10366000FDF78EFB0420CDE9004069460948FDF7CF
:10367000E7FB08B1FDF784FB1120CDE900066946A0
:103680000448FDF7DDFB002801D0FDF779FB7FBD85
:1036900000200140100C00200100000F1CB5002488
:1036A0000C4900940A48019408600846FDF7EDFDB6
:1036B00008B1FDF765FB00940022694605480194B6
:1036C000FDF78BFD002801D0FDF75AFB1CBD000063
:1036D00000740040B80C0020114808B5016841F49E
:1036E000800101600068002200F480000090114613
:1036F0003820FEF725FB3820FEF714FB0022114688
:103700003A20FEF71DFB3A20FEF70CFB0022114683
:103710004620FEF715FBBDE808404620FEF702BB39
:103720003038024070B586B014216846FCF706FEBA
:1037300026480024016841F010010160016801F091
:1037400010010591016841F004010160016801F078
:1037500004010591016841F080010160016801F0F8
:1037600080010591016841F001010160016801F0EB
:1037700001010591016841F0020101600068144EE9
:1037800000F002000590002261213046FEF7D5F8D6
:1037900061200125CDE900050220CDE902406946FE
:1037A0003046FDF7CDFF40F222208DE8310069461A
:1037B0000848FDF7C5FF4FF4C8508DE83100694651
:1037C0000548FDF7BDFF06B070BD0000303802406F
:1037D0000010024000040240000002400D4810B5F5
:1037E0000B4901600C49416000214FF48042816027
:1037F000C0E9031241618161C1610162FEF7A8F86D
:10380000002803D0BDE81040FDF7BABA10BD000093
:1038100000540040CC0C0020A086010010B596B0EA
:1038200000240F9410941194129413941C21684650
:103830001494FCF783FD202107A8FCF77FFD324894
:103840003049C0E900142021816041F26701C0E9DC
:1038500003148021C0E90541FEF7CCFD08B1FDF756
:103860008FFA4FF480500F900FA92748FEF7B6FE4D
:1038700008B1FDF785FA2448FFF763F808B1FDF7B2
:103880007FFA139413A920481494FEF76BFD08B136
:10389000FDF776FA6020009040F63400CDE901048F
:1038A0000394049405940022694617480694FEF791
:1038B000E2FF08B1FDF764FA042269461248FEF7F8
:1038C000DAFF08B1FDF75CFA082269460E48FEF7F8
:1038D000D2FF08B1FDF754FA0794089409944FF405
:1038E00000500A94CDE90B4007A907480E94FEF753
:1038F0000FFD08B1FDF744FA0348FEF791FF16B03B
:1039000010BD000000000140200D002010B586B061
:1039100000241648009401940294039404944FF0F8
:1039200080410594C0E9001441F26701C0E90241F9
:10393000802104618161FEF75DFD08B1FDF720FA89
:103940004FF48050009069460848FEF747FE08B1E2
:10395000FDF716FA049404A904480594FEF702FD45
:10396000002801D0FDF70CFA06B010BD680D00204C
:1039700010B586B000241748009401940294039473
:10398000049413490594C0E9001442F2CF01C0E940
:103990000241802104618161FEF72CFD08B1FDF731
:1039A000EFF94FF48050009069460A48FEF716FE82
:1039B00008B1FDF7E5F9049404A906480594FEF75B
:1039C000D1FC002801D0FDF7DBF906B010BD0000E6
:1039D00000040040B00D002010B586B00024174848
:1039E0000094019402940394049413490594C0E94B
:1039F000001440F63301C0E9024180210461816175
:103A0000FEF7F8FC08B1FDF7BBF94FF480500090C9
:103A100069460A48FEF7E2FD08B1FDF7B1F90494E2
:103A200004A906480594FEF79DFC002801D0FDF787
:103A3000A7F906B010BD000000080040F80D0020F6
:103A40001CB500240E4800940C490194C0E90014F0
:103A500040F63301C0E9024180218161FEF7CAFCD2
:103A600008B1FDF78DF90094694605480194FEF709
:103A700079FC002801D0FDF783F91CBD001000403F
:103A8000400E00200C4810B50A4901604FF4E131A6
:103A90004160002181600C22C160C0E90412816193
:103AA000C161FFF70BFB002803D0BDE81040FDF714
:103AB00067B910BD00100140880E0020FEE7FEE748
:103AC0000A2A25D2DFE802F005080B0E1114171A96
:103AD0001D2002230FA219E002230FA216E00223E9
:103AE0000EA213E002230EA210E002230DA20DE0AD
:103AF00002230DA20AE002230CA207E002230CA27B
:103B000004E002230BA201E002230BA200F0B8B8EC
:103B1000704700003000000031000000320000005B
:103B200033000000340000003500000036000000C3
:103B300037000000380000003900000010B50020F8
:103B400000F006F8BDE810406420FDF7E7BD000076
:103B500070B506465FF0000404F1B000C0B200F09A
:103B600043FE002000F040FE102000F03DFE002546
:103B7000304600F04BFE6D1CEDB2802DF8D3641C76
:103B8000E4B2082CE8D370BD10B5C820FDF7C6FD1F
:103B9000AE2000F029FE202000F026FE102000F0CC
:103BA00023FEB02000F020FEC82000F01DFE002003
:103BB00000F01AFE102000F017FE402000F014FE66
:103BC000812000F011FEFF2000F00EFEA12000F089
:103BD0000BFEA62000F008FEA82000F005FE3F2006
:103BE00000F002FEA42000F0FFFDD32000F0FCFD59
:103BF000002000F0F9FDD52000F0F6FDF02000F0E7
:103C0000F3FDD92000F0F0FD222000F0EDFDDA20D8
:103C100000F0EAFD122000F0E7FDDB2000F0E4FDFB
:103C2000202000F0E1FD8D2000F0DEFD142000F0EA
:103C3000DBFDAF2000F0D8FDBDE810406420FDF7AB
:103C40006DBD10B58D2000F0CFFD142000F0CCFD2F
:103C5000BDE81040AF2000F0C7BD10B50446B0313C
:103C6000C8B200F0C1FD102040EA141000F0BCFD05
:103C700004F00F00BDE8104040F0010000F0B4BDBA
:103C80002DE9F047002591468A460446012B22D0B3
:103C9000DFF8BC80022B24D155E02038C7B27E2C3F
:103CA00004D90AF10100002400F0FF0A5146204621
:103CB000FFF7D3FF07EB4700002608EB4007B85D8E
:103CC00000F0A4FD761CF6B2062EF8D3A41D6D1CE0
:103CD000E4B2EDB201E0DFF87C8019F805000028BD
:103CE000DBD1BDE8F0872038C7B2782C04D90AF1BF
:103CF0000100002400F0FF0A51462046FFF7ADFF07
:103D00005FF0000606EB071118F8010000F07EFDD9
:103D1000761CF6B2082EF5D30AF10100C1B2204696
:103D2000FFF79BFF5FF0000606EB071101EB0800B1
:103D3000007A00F06BFD761CF6B2082EF4D308343E
:103D40006D1CE4B2EDB219F805000028CBD1C8E72C
:103D5000884E0008604C00089FED090A80ED010ABA
:103D60009FED080A80ED020A80ED050AB7EE000A11
:103D700080ED060A9FED040A80ED070A70470000F7
:103D8000F7CC923800000000CDCC4C3ED0ED000ABC
:103D900030EEC00A80ED040AD0ED080A90ED011A59
:103DA000D0ED051A41EE000A90ED021A41EE210A0B
:103DB00090ED031AD0ED061A41EE210AC0ED070A74
:103DC00090ED091AF4EEC10AF1EE10FA02DCB0EE41
:103DD000601A01E080ED071AD0ED0A0AB4EEE01A8D
:103DE000F1EE10FA02D3F0EE410A01E0C0ED070A4D
:103DF000C0ED080A80ED050A80ED060A7047000054
:103E00009FED170ADFED170A81ED000A81ED010A27
:103E1000C1ED040A81ED050A81ED060A80ED000A74
:103E200080ED010A1048DFED110A80ED010A80EDF6
:103E3000000A80ED020A80ED030AC0ED050ADFEDFD
:103E40000C0AC0ED040ADFED0B0A80ED060AC0ED96
:103E5000070ADFED090AC0ED080A80ED090A70477C
:103E600000000000DA0FC93F8C0F00200AD7233D65
:103E70009A9999400000FA440000FAC47047000083
:103E800070B5DFED2F1A04462DED028BD0ED010A3F
:103E900090ED021A9FED298A30EE600A294D30EE2E
:103EA000410A9FED251A20EE010A20EE080A80ED56
:103EB000000A40EE210AC0ED010A90ED030A00EE6F
:103EC000A10A80ED030A20EE010A20EE080A84ED23
:103ED000020A95ED000A20EE080AFCF771F9D4ED0C
:103EE000020A60EE208A95ED000A20EE080AFCF72F
:103EF000A3F9D4ED010A40EE608AC4ED058A95ED80
:103F0000000A20EE080AFCF75BF9D4ED010A60EE26
:103F1000208A95ED000A20EE080AFCF78DF9D4ED11
:103F2000020A40EE208A9FED080A38EE800A84EDEE
:103F3000040ABDEC028B70BD0000C842DB0F494093
:103F400017B75138B40F0020CDCC4C3E704700005D
:103F50009FED301A10B520EE010A2DED068B3221AF
:103F6000B0FBF1F080EE209A00EE100ADFED2B8A14
:103F7000294CB8EE400AF0EE009A9FED29AAC8EE4F
:103F8000800AC4ED020AD4ED010A80EEA80A20EEF0
:103F9000290A20EE0A0AFCF74FF920EE090A214807
:103FA0009FED218A80ED000AD4ED010A80EEA80A77
:103FB00060EE290AB0EE480A00EE8A0AFCF73CF9E6
:103FC00020EE090A194880ED000A94ED010AC0EEBE
:103FD000280A20EEA90A10EE0A8AB0EE480AFCF779
:103FE0002BF920EE090A1248124980ED000A94EDDF
:103FF000010AD4ED020A30EE200A10EE100A84ED18
:10400000010A884203DB9FED0C0A84ED010ABDEC36
:10401000068B10BDD7B3DD3F000000200000B44385
:10402000DA0F494094000020910A0640C8000020A1
:10403000CC0000200000B4430000000070B5464CE6
:1040400005462DED028BF0EE408A94ED000A9FEDBF
:10405000438A20EE080AFCF7EFF884ED010A94ED9C
:10406000000A20EE080AFCF7ABF884ED020AB0EE75
:10407000680A3B48FCF7DAFD3948B0EE680A2C3094
:10408000FCF7D4FD364890ED080A2C3084ED030A85
:1040900090ED080A84ED040A94ED000A20EE080A67
:1040A000FCF78EF8D4ED040A60EE208A94ED000A45
:1040B00020EE080AFCF7C0F8D4ED030A40EE608A4F
:1040C000C5ED058A94ED000A20EE080AFCF778F8A1
:1040D000D4ED030A60EE208A94ED000A20EE080A6F
:1040E000FCF7AAF8D4ED040A1D4840EE208A6C3093
:1040F000B1EE680A85ED040AD4ED030A94ED020AD4
:10410000D4ED041A94ED011A20EE802A21EE800AE3
:1041100001EE812A00EEC10A84ED052A84ED060A2B
:10412000FFF734FE0E486C3090ED070A00F0E2FB1A
:104130000B48583090ED030A5C3884ED000AD0ED4E
:10414000000A30EE200A20EE080AFCF739F884ED68
:10415000070ABDEC028B70BDB40F0020DB0F494095
:10416000E400002030EE600A80ED050AD0ED080A78
:1041700070EE800AC0ED080A90ED011A21EE000AE7
:1041800090ED021A01EE200A80ED040AD0ED030A38
:1041900070EE800AC0ED030A90ED060AF4EEC00A44
:1041A000F1EE10FA01DD80ED030AD0ED030A90ED87
:1041B000070AF4EEC00AF1EE10FA01D280ED030A0C
:1041C0007047FDF755BD000030B593B0302168460B
:1041D000FCF7B4F814210CA8FCF7B0F81D48002532
:1041E000016841F080510160006800F0805011903A
:1041F0001948016841F4804101600068022400F41C
:104200008040119001200090000401908001CDE9D0
:10421000064008AA0420A82182E813000B906846F3
:10422000FDF7AAFE08B172B6FEE70CA90F2081E8DF
:1042300031004FF4A0500F904FF4805010900521A2
:104240000CA8FDF7AFFD002801D072B6FEE713B051
:1042500030BD000040380240007000400248016854
:1042600041F470010160704788ED00E00148FEF7FD
:1042700024BA0000200D00200148FEF71EBA0000FD
:10428000200D00200148FEF718BA0000200D002084
:104290000148FEF712BA0000200D00200148FEF789
:1042A0000CBA0000680D00200148FEF706BA0000B5
:1042B000B00D00200148FEF700BA0000F80D002004
:1042C00010B50448FCF7ADFFBDE810400248FEF70A
:1042D000F4B90000B80C0020400E0020F0B50268D0
:1042E000254C264D264E274F274B4FF0804CA042A1
:1042F00009D0604507D0A84205D0B04203D0B842EB
:1043000001D0984204D122F0700E4A6842EA0E02AF
:10431000A0421BD0604519D0A84217D0B04215D09A
:10432000B84213D0984211D0184DA8420ED0184D63
:10433000A8420BD0174DA84208D0174DA84205D06F
:10434000164DA84202D0164DA84203D122F4407562
:10435000CA682A434D6922F080022A4302608A68B3
:10436000C2620A688262A04201D0984201D1096902
:10437000016301214161F0BD0000014000040040E3
:1043800000080040000C00400004014000400140D3
:10439000004401400048014000180040001C00405B
:1043A0000020004010B501F01F030121046A99406C
:1043B0008C430462016A9A401143016210BD10B53A
:1043C000846842EA032224F47F440A432243826041
:1043D00010BD826822F070020A4342F0070181603A
:1043E00070470000F0B5026A22F001020262036A1F
:1043F00042688469124E24F073050C682C4323F044
:1044000002058B682B430D4DA84201D0B04205D167
:1044100023F00807CB683B4323F00403A84201D0F4
:10442000B04205D14D6922F4407215438A692A438E
:1044300042608461496841630362F0BD000001404D
:1044400000040140F0B5026A22F010020262026A22
:10445000436884690D6824F4E64444EA05248D68C1
:1044600022F0200242EA05120F4D104EA84201D060
:10447000B04206D1CF6822F0800242EA071222F051
:104480004002A84201D0B04207D14D6923F44063F5
:1044900043EA85038D6943EA850343608461496883
:1044A00081630262F0BD0000000001400004014091
:1044B000F0B5026A22F480720262026A4368C4693B
:1044C00022F4007224F073050C68124E2C438D68A0
:1044D00042EA05220E4DA84201D0B04206D1CF6873
:1044E00022F4006242EA072222F48062A84201D04C
:1044F000B04207D14D6923F4405343EA05138D6957
:1045000043EA05134360C4614968C1630262F0BDB8
:10451000000001400004014030B5026A22F48052DC
:104520000262046A4268C3690D6823F4E64343EA01
:1045300005238D6824F4005444EA0534084DA8424C
:1045400002D0084DA84204D14D6922F4804242EACB
:1045500085124260C36149680164046230BD000095
:10456000000001400004014010B5036A046A24F011
:1045700001040462846924F0F00444EA021423F084
:104580000A020A438461026210BD10B5036A23F077
:10459000100303628369046A23F4704343EA02321E
:1045A00024F0A00343EA01118261016210BD10B53D
:1045B000806B0021C185C184FEF74AFC10BD0168F3
:1045C0000C3151E8002F22F4907241E80023002BB7
:1045D000F5D10168143151E8002F22F0010241E8C1
:1045E0000023002BF5D1016B012909D101680C31A1
:1045F00051E8002F22F0100241E80023002BF5D1F2
:10460000202180F83E1000210163704708B590F822
:104610003E10222901D0022008BD82684FF4805349
:104620009A4201D1016921B1816A9A421BD04AB1F3
:104630000AE00268816A5268C2F308020A80816A4D
:10464000891C08E0026972B10268526802F07F02B8
:104650000A70816A491C8162C18D491E0904090CD6
:10466000C18503D019E002685268F1E70168CA68A1
:1046700022F02002CA600168CA6822F48072CA600F
:1046800001684A6922F001024A61202180F83E1047
:10469000016B012903D0FEF7B7FD002008BD002102
:1046A000016301680C3151E8002F22F0100241E84B
:1046B0000023002BF5D101680A68D20602D50A68EA
:1046C00049680091818DFEF7C2FBE6E770B50446AC
:1046D00000680169E26821F44051114301612169D8
:1046E000A068E26908436169114308432168CA6808
:1046F00049F20C639A430243CA6020684169A26987
:1047000021F440711143416131492068884202D04F
:104710003049884202D1FDF7EFFB01E0FDF7DCFBF9
:10472000E2690023192164253226B2F5004F626840
:1047300028D0A0FB0101930F9200FBF7C7FD0146B3
:10474000B0FBF5F06FF01802504301EB800006EB70
:104750000010B0FBF5F000F0F002B1FBF5F002EB59
:104760000012B1FBF5F06FF01803584301EB800025
:1047700006EB0010B0FBF5F000F00F0021681044CC
:10478000886070BDA0FB010192185B41FBF79EFDA4
:104790000146B0FBF5F00201B1FBF5F06FF0180334
:1047A000584301EB800006EBC000B0FBF5F000F0D1
:1047B000F80002EB4002B1FBF5F0584301EB80003A
:1047C00006EBC000B0FBF5F000F00700D6E70000F4
:1047D00000100140001401400148FEF73BBB0000FF
:1047E000880E0020FEE7000001B584B0012164229C
:1047F00004A88DE807000B46002278210248FDF747
:104800006BF905B000BD0000CC0C002001B584B0F0
:104810000121642204A88DE807000B46402278217C
:104820000248FDF759F905B000BD0000CC0C00208E
:104830000907090E002804DB00F1E02080F80014CD
:10484000704700F00F0000F1E02080F8141D704761
:1048500000B52DED048BB0EE409AF0EE609A83B077
:1048600051EC190BFBF782FF41EC180B18EE100A04
:1048700018EE901A8DED008B002818BF0120084318
:1048800020F00040C0F17F6000F1E040C00F14D084
:1048900019EE101A19EE900A8DED009B002918BF31
:1048A0000121084320F00040C0F17F6000F1E040AA
:1048B000C00F04BF012000F017F8B0EE480A03B0A3
:1048C000F0EE680ABDEC048B00BD02E008C8121FC0
:1048D00008C1002AFAD170477047002001E001C1E9
:1048E000121F002AFBD17047014908607047000081
:1048F000B0010020DFED160A164870EE200AC0ED68
:10490000010A90ED000AD0ED021A20EE201A00EE06
:10491000211A90ED040A31EE000AB0EE001A10EEF2
:10492000101A80ED030AB1F1804F02DD30EE410A2A
:1049300006E010EE101AB1F1404F03D930EE010A33
:1049400080ED030A80ED040AC0ED020A7047000002
:1049500063149D433C0100202DED068BFDF790F97B
:10496000FFF732FCFEF7DEFEFEF7B6FEFEF73CFE7A
:10497000FEF754FFFEF7CAFFFEF7FAFFFEF78EFEC2
:10498000FFF780F8FFF728F8FEF728FFFFF758F841
:10499000FFF7FAF8FFF7D2F8022394A200212720AC
:1049A000FFF76EF9022393A204210020FFF768F9B4
:1049B000022392A204214420FFF762F9022390A26D
:1049C00004216220FFF75CF9FFF73BF98D48FDF702
:1049D000C5FD8D48FDF7C2FD8C48FDF7BFFD8C4835
:1049E000FDF7BCFD8B48FDF7B9FD00218748FDF7B9
:1049F000D7FF04218548FDF7D3FF08218348FDF741
:104A0000CFFF8549A1F12800FFF7FAF9002183487B
:104A1000FCF788FC80487430FFF79EF99FED808B8F
:104A2000814C4FF080494FF07E589FED809ADFED2A
:104A3000809AB2EE04AA0120FEF720FD60700128E2
:104A400003D00228A06C11D107E0A06CFBF79AFDFF
:104A500053EC182BFBF77DFC05E0FBF793FD53ECC3
:104A6000182BFBF717FDFBF7A0FDA064484503DDFD
:104A7000B0EE000A84ED120AA06C4546A84203DAA3
:104A8000B7EE000A84ED120A0020FEF745FDA07083
:104A9000032806D004280DD0052810D0062818D1E8
:104AA00039E094ED120ADFED630A20EE200A84ED6E
:104AB000040A0EE00020207002235FA203E0012020
:104AC000207002235EA200212720FFF7D9F8FFF70C
:104AD000B8F894ED120A10EE100AA84220DD10EE8C
:104AE000100AFBF74FFD9FED581B53EC112BFBF702
:104AF000D7FC9FED571B53EC112BFBF72AFC9FEDC6
:104B0000561B53EC112BFBF7CBFCFBF74EFD00EED5
:104B1000100AE06408E002202070034633A2D2E7C6
:104B200020EE090A84ED130AC0EE290AFCEEE00A21
:104B300010EE900AC2B24FF47A7012FB00F000EE51
:104B4000900AF8EE600A70EE600A80EE891AFCEEB8
:104B5000C10A10EE900AC6B24FF47A7012FB00F050
:104B600000EE900A6421F8EE600A30EE601A16FB3F
:104B700001F100EE901AF8EE600A71EE600A80EE24
:104B80008A1AFCEEC10A10EE903A00EE900ADDB2ED
:104B9000F8EE600A05EB8500400070EE600A00EE5A
:104BA000101A0421B8EE400A70EEC00A00EE100A96
:104BB000B8EE400A30EEC00ABCEEC00A10EE100A91
:104BC000C7B23220FEF77CFF324604213C20FEF7BC
:104BD00077FF2A4604214B20FEF772FF3A46042154
:104BE0005520FEF76DFFFFF72CF824E753746F7024
:104BF00020202000497365743A0000002E00000058
:104C000041000000680D0020B00D0020200D0020A4
:104C1000F80D0020400E0020780B0020B80C00207A
:104C20007B14AE47E17A843F780000200000C84240
:104C300000007A44F4FDB4BF536C61766520000037
:104C40004D61737465720000F9A067B3EA73DD3FCC
:104C5000287E8CB96B09E13F00000000000059403C
:104C60000000000000000000002F0000000007000E
:104C7000070000147F147F1400242A7F2A12006288
:104C80006408132300364955225000000503000034
:104C900000001C224100000041221C000014083EBC
:104CA00008140008083E0808000000A06000000882
:104CB00008080808000060600000002010080402D6
:104CC000003E5149453E0000427F40000042615194
:104CD0004946002141454B31001814127F1000272E
:104CE00045454539003C4A494930000171090503F1
:104CF00000364949493600064949291E0000363622
:104D00000000000056360000000814224100001484
:104D10001414141400004122140800020151090661
:104D200000324959513E007C1211127C007F4949E2
:104D30004936003E41414122007F4141221C007F13
:104D400049494941007F09090901003E4149497A21
:104D5000007F0808087F0000417F4100002040419B
:104D60003F01007F08142241007F40404040007F07
:104D7000020C027F007F0408107F003E4141413E4B
:104D8000007F09090906003E4151215E007F091993
:104D900029460046494949310001017F0101003F90
:104DA0004040403F001F2040201F003F4038403F10
:104DB0000063140814630007087008070061514974
:104DC000454300007F41410000552A552A55000007
:104DD00041417F0000040201020400404040404085
:104DE000000001020400002054545478007F48441D
:104DF000443800384444442000384444487F003854
:104E00005454541800087E0901020018A4A4A47C7C
:104E1000007F080404780000447D40000040808446
:104E20007D00007F102844000000417F4000007C8E
:104E300004180478007C080404780038444444389A
:104E400000FC242424180018242418FC007C0804E6
:104E5000040800485454542000043F444020003CBF
:104E60004040207C001C2040201C003C4030403C46
:104E7000004428102844001CA0A0A07C00446454D6
:104E80004C4414141414141400000000000000001A
:104E90000000000000000000000000F8000000001A
:104EA000000000333000000000100C06100C06005B
:104EB000000000000000000040C07840C0784000C2
:104EC000043F04043F040400007088FC0830000024
:104ED000001820FF211E0000F008F000E01800007C
:104EE00000211C031E211E0000F008887000000035
:104EF0001E2123241927211010160E000000000087
:104F00000000000000000000000000E018040200A3
:104F1000000000071820400000020418E000000014
:104F20000040201807000000404080F08040400012
:104F30000202010F01020200000000F00000000068
:104F40000101011F0101010000000000000000003C
:104F500080B07000000000000000000000000000B1
:104F6000000101010101010100000000000000003A
:104F700000303000000000000000000080601804D5
:104F8000006018060100000000E010080810E000B2
:104F9000000F102020100F00001010F8000000007B
:104FA0000020203F202000000070080808887000C2
:104FB0000030282422213000003008888848300042
:104FC0000018202020110E000000C02010F8000062
:104FD00000070424243F240000F8088888080800FB
:104FE0000019212020110E0000E010888818000010
:104FF000000F112020110E0000380808C8380800E2
:105000000000003F00000000007088080888700061
:10501000001C222121221C0000E010080810E000E2
:105020000000312222110F00000000C0C00000006B
:105030000000003030000000000000800000000090
:105040000000806000000000000080402010080088
:105050000001020408102000404040404040400051
:10506000040404040404040000081020408000002C
:105070000020100804020100007048080808F00031
:105080000000003036010000C030C828E810E00001
:105090000718272423140B000000C038E00000008C
:1050A000203C23020227382008F8888888700000F6
:1050B000203F202020110E00C030080808083800CA
:1050C000071820202010080008F808080810E00041
:1050D000203F202020100F0008F88888E8081000E2
:1050E000203F20202320180008F88888E8081000B6
:1050F000203F200003000000C030080808380000EE
:1051000007182020221E020008F808000008F808EE
:10511000203F210101213F20000808F80808000075
:105120000020203F2020000000000808F8080800A8
:10513000C08080807F00000008F888C02818080020
:10514000203F20012638200008F808000000000059
:10515000203F20202020300008F8F800F8F8080050
:10516000203F003F003F200008F830C00008F8084A
:10517000203F200007183F00E01008080810E0005A
:105180000F10202020100F0008F808080808F00071
:10519000203F210101010000E01008080810E00094
:1051A0000F18242438504F0008F888888888700029
:1051B000203F2000030C30200070880808083800C9
:1051C0000038202121221C00180808F808081800BF
:1051D0000000203F2000000008F808000008F80840
:1051E000001F202020201F000878880000C83808F1
:1051F000000007380E010000F80800F80008F80069
:10520000033C0700073C0300081868808068180802
:1052100020302C03032C30200838C800C838080080
:105220000000203F2000000010080808C8380800CF
:105230002038262120201800000000FE0202020073
:105240000000007F40404000000C30C00000000023
:10525000000000010638C00000020202FE0000004B
:10526000004040407F0000000000040202020400F1
:10527000000000000000000000000000000000002E
:105280008080808080808080000202040000000016
:10529000000000000000000000008080808000000E
:1052A0000019242222223F2008F8008080000000FC
:1052B000003F112020110E000000008080800000BF
:1052C000000E112020201100000000808088F800CE
:1052D000000E112020103F20000080808080000000
:1052E000001F222222221300008080F08888881864
:1052F0000020203F2020000000008080808080006F
:10530000006B94949493600008F800808080000003
:10531000203F210000203F200080989800000000DE
:105320000020203F2020000000000080989800000E
:1053300000C08080807F000008F80000808080002E
:10534000203F24022D302000000808F80000000053
:105350000020203F2020000080808080808080000E
:10536000203F20003F20003F8080008080800000A0
:10537000203F210000203F2000008080808000002E
:10538000001F202020201F0080800080800000005F
:1053900080FFA12020110E0000000080808080008E
:1053A000000E112020A0FF8080808000808080007F
:1053B00020203F21200001000000808080808000AC
:1053C0000033242424241900008080E08080000021
:1053D0000000001F2020000080800000008080006E
:1053E000001F202020103F208080800000808080CF
:1053F00000010E300806010080800080008080805F
:105400000F300C030C300F00008080008080800083
:105410000020312E0E3120008080800000808080AE
:1054200080818E701806010000808080808080005E
:105430000021302C2221300000000000807C02027C
:1054400000000000003F404000000000FF0000009E
:1054500000000000FF0000000002027C800000004D
:105460000040403F00000000000601010202040469
:1054700000000000000000000006101600061016D4
:1054800000000000000000000102030406070809F4
:10549000000000000102030400000000920E493CDD
:1054A000B10AC93C2BC3163D2EFB483D752B7B3DF5
:1054B00004A9963D80B6AF3D36BDC83D2FBCE13D49
:1054C00073B2FA3D87CF093E8340163EB5AB223E0C
:1054D000A2102F3ECF6E3B3EC2C5473E0115543E43
:1054E000135C603E7F9A6C3ECCCF783EC07D823E9E
:1054F000938E883E229A8E3E32A0943E86A09A3E9B
:10550000E59AA03E128FA63ED47CAC3EEF63B23E3D
:105510002A44B83E491DBE3E15EFC33E53B9C93EAD
:10552000CA7BCF3E4136D53E80E8DA3E4F92E03E20
:105530007533E63EBBCBEB3EEA5AF13ECBE0F63E9E
:10554000275DFC3EE4E7003F3D9C033F824B063F66
:105550009BF5083F6B9A0B3FDA390E3FCDD3103FD6
:105560002A68133FD9F6153FC07F183FC6021B3F7C
:10557000D17F1D3FCBF61F3F9967223F25D2243FA5
:105580005636273F1594293F4AEB2B3FDE3B2E3FF3
:10559000BB85303FC9C8323FF304353F233A373F1C
:1055A0004268393F3B8F3B3FF9AE3D3F67C73F3FC6
:1055B00070D8413F01E2433F03E4453F65DE473F8A
:1055C00012D1493FF8BB4B3F029F4D3F207A4F3FDE
:1055D0003D4D513F4918533F31DB543FE595563F10
:1055E0005348583F6AF2593F1A945B3F532D5D3F31
:1055F00005BE5E3F2146603F97C5613F5A3C633F11
:1056000059AA643F880F663FD86B673F3CBF683F2D
:10561000A7096A3F0C4B6B3F5E836C3F93B26D3FB3
:105620009ED86E3F73F56F3F0809713F5213723F6A
:105630004714733FDD0B743F0BFA743FC6DE753FB2
:1056400007BA763FC58B773FF853783F9812793F7A
:105650009DC7793F02737A3FBE147B3FCDAC7B3F41
:10566000283B7C3FC9BF7C3FAC3A7D3FCCAB7D3F04
:1056700023137E3FB0707E3F6DC47E3F580E7F3F48
:105680006D4E7F3FAB847F3F0FB17F3F97D37F3F0E
:1056900043EC7F3F11FB7F3F0000803F11FB7F3FCA
:1056A00043EC7F3F97D37F3F0FB17F3FAB847F3F7A
:1056B0006D4E7F3F580E7F3F6DC47E3FB0707E3F82
:1056C00023137E3FCCAB7D3FAC3A7D3FC9BF7C3FCF
:1056D000283B7C3FCDAC7B3FBE147B3F02737A3FBF
:1056E0009DC7793F9812793FF853783FC58B773F34
:1056F00007BA763FC6DE753F0BFA743FDD0B743F89
:105700004714733F5213723F0809713F73F56F3F9F
:105710009ED86E3F93B26D3F5E836C3F0C4B6B3FE8
:10572000A7096A3F3CBF683FD86B673F880F663F59
:1057300059AA643F5A3C633F97C5613F2146603F89
:1057400005BE5E3F532D5D3F1A945B3F6AF2593FA1
:105750005348583FE595563F31DB543F4918533F76
:105760003D4D513F207A4F3F029F4D3FF8BB4B3F8D
:1057700012D1493F65DE473F03E4453F01E2433F25
:1057800070D8413F67C73F3FF9AE3D3F3B8F3B3F3E
:105790004268393F233A373FF304353FC9C8323FA7
:1057A000BB85303FDE3B2E3F4AEB2B3F1594293F14
:1057B0005636273F25D2243F9967223FCBF61F3F1D
:1057C000D17F1D3FC6021B3FC07F183FD9F6153F52
:1057D0002A68133FCDD3103FDA390E3F6B9A0B3F47
:1057E0009BF5083F824B063F3D9C033FE4E7003FAB
:1057F000275DFC3ECBE0F63EEA5AF13EBBCBEB3EEA
:105800007533E63E4F92E03E80E8DA3E4136D53EC3
:10581000CA7BCF3E53B9C93E15EFC33E491DBE3EBC
:105820002A44B83EEF63B23ED47CAC3E128FA63E13
:10583000E59AA03E86A09A3E32A0943E229A8E3EE1
:10584000938E883EC07D823ECCCF783E7F9A6C3E60
:10585000135C603E0115543EC2C5473ECF6E3B3ED1
:10586000A2102F3EB5AB223E8340163E87CF093EA5
:1058700073B2FA3D2FBCE13D36BDC83D80B6AF3DA9
:1058800004A9963D752B7B3D2EFB483D2BC3163D51
:10589000B10AC93C920E493C00000000920E49BC7E
:1058A000B10AC9BC2BC316BD2EFB48BD752B7BBDF1
:1058B00004A996BD80B6AFBD36BDC8BD2FBCE1BD45
:1058C00073B2FABD87CF09BE834016BEB5AB22BE08
:1058D000A2102FBECF6E3BBEC2C547BE011554BE3F
:1058E000135C60BE7F9A6CBECCCF78BEC07D82BE9A
:1058F000938E88BE229A8EBE32A094BE86A09ABE97
:10590000E59AA0BE128FA6BED47CACBEEF63B2BE39
:105910002A44B8BE491DBEBE15EFC3BE53B9C9BEA9
:10592000CA7BCFBE4136D5BE80E8DABE4F92E0BE1C
:105930007533E6BEBBCBEBBEEA5AF1BECBE0F6BE9A
:10594000275DFCBEE4E700BF3D9C03BF824B06BF62
:105950009BF508BF6B9A0BBFDA390EBFCDD310BFD2
:105960002A6813BFD9F615BFC07F18BFC6021BBF78
:10597000D17F1DBFCBF61FBF996722BF25D224BFA1
:10598000563627BF159429BF4AEB2BBFDE3B2EBFEF
:10599000BB8530BFC9C832BFF30435BF233A37BF18
:1059A000426839BF3B8F3BBFF9AE3DBF67C73FBFC2
:1059B00070D841BF01E243BF03E445BF65DE47BF86
:1059C00012D149BFF8BB4BBF029F4DBF207A4FBFDA
:1059D0003D4D51BF491853BF31DB54BFE59556BF0C
:1059E000534858BF6AF259BF1A945BBF532D5DBF2D
:1059F00005BE5EBF214660BF97C561BF5A3C63BF0D
:105A000059AA64BF880F66BFD86B67BF3CBF68BF29
:105A1000A7096ABF0C4B6BBF5E836CBF93B26DBFAF
:105A20009ED86EBF73F56FBF080971BF521372BF66
:105A3000471473BFDD0B74BF0BFA74BFC6DE75BFAE
:105A400007BA76BFC58B77BFF85378BF981279BF76
:105A50009DC779BF02737ABFBE147BBFCDAC7BBF3D
:105A6000283B7CBFC9BF7CBFAC3A7DBFCCAB7DBF00
:105A700023137EBFB0707EBF6DC47EBF580E7FBF44
:105A80006D4E7FBFAB847FBF0FB17FBF97D37FBF0A
:105A900043EC7FBF11FB7FBF000080BF11FB7FBFC6
:105AA00043EC7FBF97D37FBF0FB17FBFAB847FBF76
:105AB0006D4E7FBF580E7FBF6DC47EBFB0707EBF7E
:105AC00023137EBFCCAB7DBFAC3A7DBFC9BF7CBFCB
:105AD000283B7CBFCDAC7BBFBE147BBF02737ABFBB
