:020000040800F2
:10000000F81300209D010008A738000825300008DB
:10001000A5380008DB0B000861450008000000005F
:10002000000000000000000000000000293D000862
:10003000A50C000800000000653C0008413F0008D6
:10004000B7010008B7010008B7010008B7010008B0
:10005000B7010008B7010008B7010008B7010008A0
:10006000B7010008B7010008B7010008B701000890
:10007000B7010008B7010008B7010008B701000880
:10008000B7010008B7010008B7010008B701000870
:10009000B7010008B7010008B7010008B701000860
:1000A000E93F00080D40000801400008F53F000846
:1000B000194000082540000831400008B701000839
:1000C000B7010008B7010008B7010008B701000830
:1000D000B701000855450008B7010008B70100083E
:1000E000B7010008B7010008B7010008B701000810
:1000F000B7010008B7010008B7010008B701000800
:10010000B7010008B7010008B7010008B7010008EF
:10011000B7010008B70100083D400008B70100081A
:10012000DD0B0008B7010008E90B0008B701000863
:10013000B7010008B7010008B7010008B7010008BF
:10014000B7010008B7010008B7010008B7010008AF
:10015000B7010008B7010008F50B0008B701000857
:10016000B7010008B7010008B7010008B70100088F
:10017000B7010008B7010008B7010008000000003F
:10018000B7010008B7010008DFF80CD000F0EEFA64
:100190000048004751460008F813002006488047F1
:1001A00006480047FEE7FEE7FEE7FEE7FEE7FEE75C
:1001B000FEE7FEE7FEE7FEE7D93F000889010008F9
:1001C0009FED1A1AF5EE000A40EE010ABDEEE00AB4
:1001D000F5EEC00A10EE100AF1EE10FA38BF401E1C
:1001E00000EE100A1349F7EE001AB8EEC00A30EE1E
:1001F000C00ADFED0F0A20EE200AFCEEC00A10EE66
:10020000900AC0F3080000EE900A01EB8000F8EEBF
:10021000600A90ED011A70EE600A90ED000A71EE2E
:10022000E01A21EE800A00EE810A704783F9223E2F
:1002300000000044F8510008B5EEC00AF1EE10FAD3
:1002400007D2DFED1E0AB4EEE00AF1EE10FAA8BF05
:100250007047DFED1B0AB5EEC00A60EE200ABDEE66
:10026000E01A11EE100AF1EE10FA38BF401E00EE4F
:10027000100A1549F7EE001AB8EEC00A30EEC00AAF
:10028000DFED100A60EE200ABCEEE00A10EE100A64
:10029000C0F3080000EE100A01EB8000B8EE400A3F
:1002A00090ED011A70EEC00A90ED000A71EEE01AAE
:1002B00021EE800A00EE810A70470000CD024CB4A6
:1002C00083F9223E00000044F85100082DE9F05F58
:1002D0000546002092469B468846064681464024B5
:1002E0001BE0284641464746224600F089F953461E
:1002F0005A46C01A914110D311461846224600F0C2
:1003000070F92D1A67EB01084F46224601200021A3
:1003100000F067F917EB00094E41201EA4F101041B
:10032000DFDC484631462A464346BDE8F09FD2B25C
:1003300001E000F8012B491EFBD270470022F6E7CE
:1003400010B513460A4604461946FFF7F0FF20464B
:1003500010BD2DE9FE4F804681EA0300C00F0C4618
:10036000009021F0004123F00045B8EB0200A941C4
:1003700005D24046214690461C460B46024623F0D5
:100380000040104347D0270DC7F30A00C3F30A51BA
:100390000290401A019040286BDAC3F3130040F436
:1003A000801B0098924620B10023D2EB030A63EB36
:1003B0000B0B01985946C0F14002504600F011F96C
:1003C00006460D4650465946019A00F029F910EBB1
:1003D00008006141002487EA115284EAE7731A4356
:1003E00040D0009A62B3019A012A4FEA075215DC05
:1003F000001B61EB02014FF0004202EA0752CDE917
:100400000042001C41F5801132462B4600F060F995
:1004100003B0BDE8F08F40462146F9E7001B61EBD1
:100420000201001C41F5801300185B412018A2F561
:10043000001747EB030140EAD570B6196D4111E092
:100440006D084FEA360645EAC0754FEA0752001BB1
:1004500061EB0201001C41F5801149084FEA3000B0
:100460000019514132462B4603B0BDE8F04F00F071
:1004700020B90098012240000023D0EB020263EB78
:10048000E073009821464FEAE074B8EB000061EB9E
:100490000401E9E783F000435BE781F0004158E79E
:1004A0002DE9FE4F81EA030404F0004421F00041ED
:1004B00000944FF0000B23F0004350EA01045ED09B
:1004C00052EA03045BD0C3F30A54C1F30A552C4427
:1004D000A4F2F3340194A0FB0254C1F3130141F4DC
:1004E0008011C3F3130343F4801301FB024400FBA8
:1004F000034E840A970A44EA815447EA8357A4FBCF
:10050000076802958D0A05FB07854FEA932C04FBCB
:100510000C542705029D4FEA065847EA1637B5EBFB
:1005200008056EEB070C870E920E47EA811742EA28
:100530008312A7FB0201B6EB0B0164EB00042B0D49
:1005400043EA0C335E1844EB1C50DA465146E7FB95
:100550000201C5F313044FEA0B3343EA14534FEA85
:100560000432019C43EA0603A4F10C040294009CAB
:10057000CDE900B400F0ACF803B0BDE8F08F002086
:100580000146F9E700F0004230F000400AD0C10D0A
:1005900001F56071C0F3160042EA0151C20840073C
:1005A0001143704700200146704701F0004330B40A
:1005B00021F0004150EA010206D00A0DA2F5607256
:1005C000C1F31301002A02DC30BC00207047440F45
:1005D00044EAC104C100E01830BC00EBC25000F096
:1005E00031B8202A04DB203A00FA02F100207047DB
:1005F0009140C2F1200320FA03F319439040704761
:10060000202A04DB203A21FA02F00021704721FA67
:1006100002F3D040C2F120029140084319467047CE
:10062000202A06DBCB17203A41FA02F043EAE073B6
:1006300006E041FA02F3D040C2F1200291400843A3
:10064000194670470029A8BF7047401C490008BFE1
:1006500020F00100704710B4B0FA80FC00FA0CF0F2
:1006600050EA010404BF10BC704749B1CCF120042A
:1006700021FA04F411FA0CF118BF012121430843B7
:10068000A3EB0C01CB1D4FEA00614FEA102042BFE3
:10069000002010BC704700EBC35010440029A4BFD9
:1006A00010BC7047401C490008BF20F0010010BC7E
:1006B000704710B5141E73F1000408DA401C41F1B4
:1006C000000192185B411A4301D120F0010010BDD6
:1006D0002DE9F04D92469B4611B1B1FA81F202E04C
:1006E000B0FA80F220329046FFF77BFF04460F46B7
:1006F00040EA0A0041EA0B0153465A46084313D028
:10070000114653EA010019D0C8F140025046FFF7E4
:1007100077FF05460E46504659464246FFF761FFB1
:10072000084305D0012004E020463946BDE8F08D9D
:100730000020054346EAE0762C4337430A986305D8
:10074000E40AA0EB08000022FD0A44EA47540A30FC
:1007500002D500200146E9E7010510196941DDE9EC
:10076000084500196941BDE8F04DA2E7064C074D68
:1007700006E0E06840F0010394E807009847103471
:10078000AC42F6D3FFF704FDFC5900081C5A0008E0
:1007900070B58C1810F8015B15F0070301D110F843
:1007A000013B2A1106D110F8012B03E010F8016B70
:1007B00001F8016B5B1EF9D12B0705D40023521EF3
:1007C0000DD401F8013BFAE710F8013BCB1A921C5B
:1007D00003E013F8015B01F8015B521EF9D5A14259
:1007E000D8D3002070BD10B50146806B026C12F0AA
:1007F000500F05D0026CD20626D500F077FB10BD55
:10080000016C41F40071016401688A6812F0405F74
:1008100017D1027EAAB9CA6A12F4700F02D08A6890
:1008200052050ED44A6822F020024A60016C21F47D
:1008300080710164016CC90403D4016C41F00101B1
:10084000016400F051FB10BD806BC26CBDE810402C
:100850000846104710B5806B40210164416C41F09F
:100860000401416400F042FB10BD10B5806B00F044
:100870003CFB10BD464910B54A6822F440324A603C
:100880004A6843681A434A6001684A6822F48072E1
:100890004A6001684A68036942EA03224A600168C3
:1008A0004A6822F040724A6001684A6883681A43C5
:1008B0004A6001688A6822F400628A6001688A6876
:1008C000C3681A438A60816A6FF07062D14201681E
:1008D0008A6822F070628A6001688A680CD0836A34
:1008E0001A438A6001688A6822F040528A6001686F
:1008F0008A68C36A1A4301E022F040528A600168A4
:100900008A6822F002028A6001688A68037E42EAED
:1009100043028A6090F82010002901684A680FD0CD
:1009200042F400624A6001684A6822F460424A6008
:1009300001684A68174C436A04EB43331A4301E0E9
:1009400022F400624A600168CA6A22F47002CA6234
:100950000168CA6A838B104C04EB03531A43CA62C2
:1009600001688A6822F400728A6001688A6890F8D7
:10097000303042EA43228A6001688A6822F4806249
:100980008A6001688A68406942EA8020886010BDF8
:100990000023014000E0FFFF0000F0FF30B52549D3
:1009A000254C0B468A6A5B6A012A04EB830501D059
:1009B0001AB106E085ED000A03E085ED000A5B1C34
:1009C0004B624B6A834201D0012A2FD100231A4681
:1009D0004B620BE004EB8205D1ED040A95ED000AB1
:1009E000521C30EE200A81ED040A4A628242F1DB99
:1009F00000EE100AD1ED040A1A46B8EEC00A80EEE5
:100A0000801A81ED061A4B6208E000BF04EB8203F6
:100A1000521C93ED010A83ED000A4A628242F5DB23
:100A200001209FED060A81ED040A886291ED060A15
:100A300030BD000018000020B001002000000000C0
:100A400030B52549254C0B468A6A5B6A012A04EBBE
:100A5000830501D01AB106E085ED000A03E085EDBB
:100A6000000A5B1C4B624B6A834201D0012A2FD1E2
:100A700000231A464B620BE004EB8205D1ED030A1A
:100A800095ED000A521C30EE200A81ED030A4A62FD
:100A90008242F1DB00EE100AD1ED030A1A46B8EEED
:100AA000C00A80EE801A81ED051A4B6208E000BF93
:100AB00004EB8203521C93ED010A83ED000A4A62A3
:100AC0008242F5DB01209FED060A81ED030A886270
:100AD00091ED050A30BD000018000020D004002070
:100AE0000000000030B52549254C0B468A6A5B6A38
:100AF000012A04EB830501D01AB106E085ED000A56
:100B000003E085ED000A5B1C4B624B6A834201D017
:100B1000012A2FD100231A464B620BE004EB820519
:100B2000D1ED070A95ED000A521C30EE200A81ED46
:100B3000070A4A628242F1DB00EE100AD1ED070A91
:100B40001A46B8EEC00A80EE801A81ED081A4B6290
:100B500008E000BF04EB8203521C93ED010A83ED11
:100B6000000A4A628242F5DB01209FED060A81ED10
:100B7000070A886291ED080A30BD000018000020C5
:100B8000F00700200000000080ED050AD0ED000A0B
:100B9000D0ED061A90ED072A20EE801AD0ED010A5A
:100BA000D0ED0A2A00EEA11AD0ED020A00EE821A58
:100BB00090ED032AD0ED090A02EE201A90ED042AE6
:100BC00002EE221A80ED081AC0ED0A0A80ED091A19
:100BD000C0ED071A80ED060A7047FEE7014800F0F5
:100BE000D9BB0000540C0020014800F0D3BB00002A
:100BF000C80E0020014800F0CDBB0000280F0020E7
:100C000001681823CAB2103AB2FBF3F2054B6FF336
:100C10000901032A9B5CC36500D9091D816508464B
:100C200070470000D851000810B5014600208B69BC
:100C30008A6A4FF0C07453B1B3F5005F15D072B13A
:100C4000012A0CD0022A0AD0032A09D104E01AB1E1
:100C5000012A06D0022A03D1C96AC90100D50120A0
:100C600010BDC96AA142FAD010BD002AF7D0012AEE
:100C7000F2D0022AF3D0032AF3D010BD30B50468B5
:100C8000256825F480252560046863608368402B0F
:100C9000036803D099600068C26030BD9A60006844
:100CA000C16030BD704700B502464FF47A7302E070
:100CB000184600F003F8521EFAD200BD00EBC00047
:100CC000C1004FF0E02041610021816105210161F7
:100CD0000169C903FCD504210161704772B6FEE7C2
:100CE00010B5044605222649264800F079F9244823
:100CF0009FED251A254A018900EE101AF8EE400AE8
:100D000081EE200ADFED220A9FED221A20EE200A52
:100D1000BDEEC00A10EE101AD160A1F6B83100EE97
:100D2000101AF8EEC00AB0EE080A00EE810A82ED51
:100D3000020A018800EE901AF8EE601ADFED160A3A
:100D400081EEA01A21EE000A84ED000A418800EE2F
:100D5000101AB8EE400A80EE201A92ED020A21EE37
:100D6000001A84ED011A808801EE100AB8EE411ACB
:100D7000C1EE201A21EE800A84ED020A10BD0000A7
:100D8000100B00200C0C0020009099455C00002006
:100D900000007A446F12833A00F07F4578B5002452
:100DA000009490F83C20012A19D0012280F83C20C0
:100DB0000A6807230568092A13D9EE680A3A02EB84
:100DC000420293409E43EE600B788A680A3B03EB35
:100DD00043039A400368DD682A43DA6010E002208A
:100DE00078BD2E6902EB420293409E432E610B7840
:100DF0008A6803EB43039A4003681D692A431A611A
:100E00004A681F23072A13D205686E6B521E02EB35
:100E1000820293409E436E630B790A885B1E92B2F6
:100E200003EB83039A4003685D6B2A435A6327E010
:100E300005680D2A12D22E6BD21F02EB820293405C
:100E40009E432E630B790A88DB1F92B203EB830368
:100E50009A4003681D6B2A431A6311E0EE6A0D3A4B
:100E600002EB820293409E43EE620B790A880D3BAF
:100E700092B203EB83039A400368DD6A2A43DA6285
:100E8000164B0568144A9D4206D10D68122D03D1F8
:100E9000556845F48005556005689D4218D10B687A
:100EA000102B01D0112B13D1536843F4000353606E
:100EB000096810290CD10A490A4A0968B1FBF2F104
:100EC00001EB8101490000E0491E00910029FBD19E
:100ED00080F83C40002078BD002301400020014004
:100EE000DC00002040420F0070477047704770B52B
:100EF00004004FF0000503D0206C002610B107E07D
:100F0000012070BD204600F01DF8666484F83C6046
:100F1000206CC00610D4206C20F4885040F00200F1
:100F200020642046FFF7A6FC6664206C20F00200D7
:100F300040F00100206400E0012584F83C60284670
:100F400070BD000070B586B0064614216846FFF7F4
:100F5000F5F91E493068884235D11D4800250168E1
:100F600041F480710160006800F4807005901848B9
:100F70001438016841F0010101600068694600F021
:100F8000010005900F2000900320CDE901051148D4
:100F900000F084FB114C1048C4E900050015A56061
:100FA000C4E90350400060618000A0614011E0612D
:100FB0004002C4E90805204600F0BCFA08B1FFF77A
:100FC0008DFEB463A66306B070BD00000020014032
:100FD000443802400000024010640240540C0020DB
:100FE000F8B5044600200E46009094F83C10012904
:100FF00007D0012184F83C1021688B68DB0702D000
:1010000011E00220F8BD8B6843F001038B6040497A
:10101000404B0968B1FBF3F101EB410100E0491ECF
:1010200000910029FBD121688B68DB0503D58B6813
:1010300023F480738B6021688B68DB075DD0236CA1
:1010400040F20165AB4343F480732364496849056A
:1010500005D5216C21F4005141F480512164216CAB
:10106000C90404D5616C21F00601616400E060648C
:1010700084F83C00A16B2948274DC863A16B284820
:101080000864A16B2748C86421686FF022000860DB
:101090002068416841F0806141602068816841F4C6
:1010A000807181602168134632464C31A06B00F09C
:1010B000ABFA68681C49C006206806D0884224D173
:1010C000816811F0405F13D01FE08842F8D0174AC2
:1010D000904203D1D1F80423D206F1D0144A9042B1
:1010E00013D1D1F8041301F01F011029E8D30CE04B
:1010F000816841F08041816007E0206C40F0100081
:101100002064606C40F0010060640020F8BD0000C5
:10111000DC00002040420F0000230140E7070008E8
:101120006B0800085508000800200140002101401C
:1011300000220140704770B54379012B1CD0012675
:1011400046710223037105682B6802F0100440F613
:10115000FE72A2409343D1E900210A43A2401A4300
:101160002A6001680A68C023A3409A430A60067196
:1011700000214171084670BD022070BD704770B5F6
:101180000446006801684FF00405890411D5416BDD
:1011900089040ED52571216941F001012161E9021F
:1011A00041632068016821F4805101602046FFF707
:1011B000E5FF20680168890014D5416B890011D5CD
:1011C0002571216941F0020121614FF00051416315
:1011D0002068016821F0805101602046BDE8704020
:1011E000FFF7A8BF70BD70B5040003D020790025BB
:1011F00010B105E0012070BD6571204600F008F8CF
:1012000002202071256101202071002070BD0000A6
:1012100010B586B0044614216846FFF78FF81549CB
:101220002068884224D114480021026842F000520C
:101230000260006800F0005005900F481038026806
:1012400042F001020260006800F0010005901020E9
:1012500000900320CDE901016946084800F01EFA1C
:1012600000221146362000F019FD362000F008FD5E
:1012700006B010BD0074004040380240000002403B
:1012800070B54279012A1ED00122427102230371F6
:101290000468266801F0100302FA03F52E43266065
:1012A0000029016811D00C6804F470153C249C409E
:1012B000A54203D14B6843F002034B600271002149
:1012C0004171084670BD022070BD0B68C3F38303F3
:1012D0000F2BF3D14B6843F00103EEE72DE9F0410A
:1012E0000446876D00F0DCFA064694F835000025C8
:1012F000022806D08020606584F834500120BDE8C3
:10130000F0812068016821F01601016020684169C0
:1013100021F080014161206C08B9A06C20B12068E7
:10132000016821F0080101602068016821F00101D5
:1013300001600CE000F0B4FA801B052807D92020DA
:101340006065032084F8350084F83450D7E72068BE
:101350000068C007EED194F85C103F208840B86068
:10136000012084F8350084F834500020C7E790F855
:101370003510022903D080214165012070470521E5
:1013800080F835100068016821F00101016000203B
:10139000704700002DE9F84304464FF00009CDF8EE
:1013A000009063484FF41651A56D0068B0FBF1F74B
:1013B0002E6894F85C10082000FA01F131420FD039
:1013C00021680A6852070BD50A6822F004020A60F5
:1013D00094F85C108840A860606D40F00100606582
:1013E00094F85C104FF0010808FA01F0304208D080
:1013F00021684969090604D5A860606D40F00200C3
:10140000606594F85C1004208840304208D0216860
:101410000968890704D5A860606D40F00400606524
:1014200094F85C1010208840304218D02168096878
:10143000090714D5A86020680168490304D500682D
:10144000000308D5A16C07E00168C90503D4016851
:1014500021F008010160216C09B12046884794F809
:101460005C1020208840304231D021680968C906CC
:101470002DD5A86094F8350005282068016806D0AD
:10148000490347D5006800031DD4616C1CE021F0BE
:10149000160101602068416921F080014161206CE2
:1014A00008B9A06C20B12068016821F00801016032
:1014B00094F85C103F208840A86084F8358084F858
:1014C0003490216D1FE0E16B09B120468847606DC3
:1014D00000282BD0606DC00714D0052084F835009B
:1014E0002068016821F0010101600098401C009013
:1014F000B84203D820680068C007F6D184F8358068
:1015000084F83490E16C002910D001B02046BDE889
:10151000F04308470168C905D5D4016821F01001DE
:10152000016084F8358084F83490CCE7BDE8F88316
:10153000DC0000202DE9F041044600F0B1F9064638
:101540005CB1022084F83500002584F8345020680E
:10155000016821F0010101600DE00120BDE8F0818A
:1015600000F09EF9801B052805D920206065032026
:1015700084F83500F2E720680068C007F0D12268DF
:10158000116820480140D4E901031843D4E9033627
:101590003343184363691843A3691843E369184345
:1015A000236A18430843616A042903D1D4E90B1361
:1015B00019430843106020684069666A20F00701FB
:1015C00030460E43012704280CD1A06A0643E06A86
:1015D00040B12046FFF728FB20B14020606584F829
:1015E0003570BAE7206846612046FFF709FB94F89A
:1015F0005C203F2191408160656584F83570002052
:10160000ACE700003F8010F02DE9F0410446866D04
:1016100090F83400002501280DD0012084F8340012
:1016200094F835700020012F07D084F8340002258B
:101630002846BDE8F0810220FBE7022784F83570D8
:1016400060652046FFF71AFB94F85C103F20884045
:10165000B0602068016841F016010160206C20B183
:101660002068016841F0080101602068016841F0CC
:1016700001010160DCE7000070B5044600F010F9DC
:101680000546601C02D004480078044400F008F9C4
:10169000401BA042FAD370BDD00000202DE9F84FC6
:1016A000DFF8BCA10022012503264FF00F090AF143
:1016B000040BAAF1040E00BF0B6805FA02F42340E4
:1016C000A34270D10F7907F00307012F01D0022F39
:1016D00016D187684FEA420806FA08FC27EA0C0789
:1016E000D1F80CC00CFA08FC4CEA070CC0F808C092
:1016F0004768A7430C79C4F3001494403C4344600A
:101700000C79E443A4070AD0C4684FEA420C06FAF5
:101710000CF7BC438F6807FA0CF72743C7600C79B6
:1017200004F00304022C12D1D40800EB840CDCF882
:1017300020405707FF0E09FA07F824EA0804D1F8F9
:10174000108008FA07F848EA0408CCF820800468FA
:101750004FEA420C06FA0CF7BC430F7907F0030777
:1017600007FA0CF7274307604C6814F4403F70D029
:101770003C4C276847F480472760246822F0030721
:1017800004F480440094384C07EB040CDCF808485F
:1017900097074FEA177809FA08F7BC43334FB84266
:1017A00002D1002724E054E0314FB84201D1012793
:1017B0001EE0304FB84201D1022719E02E4FB84247
:1017C00001D1032714E02D4FB84201D104270FE0C7
:1017D0002B4FB84201D105270AE02A4FB84201D168
:1017E000062705E0284FB84201D1072700E0082767
:1017F00007FA08F72743CCF80878DAF8004057468C
:10180000D1F804C09C435FEACC2C00D51C433C605B
:10181000DBF800405F46D1F804C09C435FEA8C2CA3
:1018200000D51C433C60DEF800407746D1F804C088
:101830009C435FEA8C3C00D51C433C60084F083F4A
:101840003C68D1F804C09C435FEACC3C00D51C4303
:101850003C60521C102AFFF42FAFBDE8F88F000047
:10186000083C014044380240003001400000024082
:101870000004024000080240000C02400010024038
:101880000014024000180240001C02400069084099
:1018900000D0012070470AB1816170470904FBE75D
:1018A0000148806870470000D000002070B5040037
:1018B00025D094F83D00002520B984F83C502046FE
:1018C00000F050F9242084F83D002068016821F0E0
:1018D000010101602068016841F400410160206855
:1018E000016821F40041016000F0A4FA4D4A6168EA
:1018F000914201D84C4900E04C49884201D2012074
:1019000070BD4B492368B0FBF1F15E6826F03F06DD
:101910000E435E606368934206D94FF49673594351
:101920004FF47A73B1FBF3F12368491C1E6A26F069
:101930003F06314319626168914210D84900401E48
:10194000B0FBF1F2521CC2F30B02042A01D20420B4
:1019500022E0B0FBF1F0401CC0F30B001CE0A268D9
:10196000F2B301EBC10303EB0116431EB3FBF6F325
:101970005B1C43F480431B0549D092B301EBC102C9
:1019800002EB0111401EB0FBF1F0401CC0F30B0054
:1019900040F4804040F400402168CA694CF6FF736F
:1019A0009A431043C861D4E90710014320680268D4
:1019B00022F0C00211430160D4E903010143206811
:1019C000826848F2FF339A4311438160D4E90501EC
:1019D00008432168CA6822F0FF021043C86001E092
:1019E0000EE016E02068016841F001010160256405
:1019F000202084F83D00256384F83E50002070BD0F
:101A000001EB4106431EB3FBF6F35B1CB3E7012079
:101A1000C2E701EB4101401EB0FBF1F0401CC0F3F6
:101A20000B00B7E7A086010080841E0000093D007E
:101A300040420F002DE9FF4F83B09A46DDE9119730
:101A400093460446DDF84080FFF72AFF054694F8E8
:101A50003D0020287FD119230122404920460095CE
:101A600001F072FB002876D194F83C00012872D076
:101A7000012084F83C0020680168C90703D101688F
:101A800041F0010101602068016821F400610160FA
:101A9000212084F83D00402084F83E000026266482
:101AA000C4F82480A4F82A90608D20852C48E06238
:101AB000CDE9007553465A462046049901F0CAFA0A
:101AC00070B930E02A463946204601F0BCFB58B1D7
:101AD000206C042804D12068016841F40071016081
:101AE000012007B0BDE8F08F606A216800780861C6
:101AF000606A401C6062218D491E89B22185628D19
:101B0000521E628522685369DB435B070BD469B1BF
:101B100000781061606A401C6062208D401E208544
:101B2000608D401E6085208D0028CBD12A46394625
:101B3000204601F0E3FA0028CAD154F83D0B0168B1
:101B400041F400710160202004F81E09E6776677F1
:101B50000020C6E7FFE70220C3E7000002001000F4
:101B60000000FFFF10B586B0044614216846FEF75A
:101B7000E5FB13492068884220D112480021026801
:101B800042F002020260006800F002000590C020EE
:101B900000901220CDE9010103200390042004905D
:101BA00069460948FFF77AFD06481030016841F49C
:101BB00000110160006800F40010059006B010BD2F
:101BC000005400403038024000040240024881685E
:101BD0000278114481607047D00000200B4810B596
:101BE000016841F400710160016841F480610160A5
:101BF000016841F480710160032000F06FF80F204C
:101C000000F006F800F024F8002010BD003C02406F
:101C100070B50D4D04464FF47A712878B1FBF0F0A1
:101C20000A490968B1FBF0F000F00AFB48B9102C32
:101C300007D200222146501E00F030F800206C60D0
:101C400070BD012070BD0000D0000020DC0000202D
:101C50000A4808B5016841F480410160006800F459
:101C6000804000900548001F016841F080510160EC
:101C7000006800F08050009008BD00004438024029
:101C8000002809DB00F01F0201219140400980007B
:101C900000F1E020C0F8001170470000F0B40E4BD6
:101CA0001B680C46C3F30223C3F10705042D00D9BA
:101CB0000425191D072901D2002300E0DB1E01269F
:101CC00006FA05F1491E214099409E40761E1640B5
:101CD0003143F0BC02F06ABC0CED00E0064900F0B4
:101CE000070208684FF6FF03184040EA0220034A43
:101CF00010430860704700000CED00E00000FA059A
:101D00002DE9F0470E46050065D0DFF81481D8F8BC
:101D10000000F7B200F00700B04207D288F8007068
:101D2000D8F8000000F00700B04254D128683D4CBC
:101D3000810712D5400703D5206840F4E0502060A9
:101D40002878000703D5206840F4604020602068B0
:101D5000A96820F0F000084320602878C0072DD043
:101D6000304968680839012812D0022813D00328A6
:101D700011D00968890700292DDA216821F00301B3
:101D800001432160FFF78CFD814641F2883A0EE065
:101D900009688903EFE709688901ECE7FFF780FD2F
:101DA000A0EB0901514502D90320BDE8F087206866
:101DB000696800F00C00B0EB810FEFD1D8F800108B
:101DC000404601F00701B14207D90770006800F0F2
:101DD0000700B04201D00120E7E72878400705D589
:101DE0002068E96820F4E050084320602878000764
:101DF00006D52068296920F4604040EAC1002060CF
:101E000000F038F82168084AC1F30311515CC8405A
:101E10000649086006480068FFF7FAFE0020C4E79C
:101E2000003C024008380240E0510008DC0000207D
:101E3000D40000200448054900680968044AC1F339
:101E40008221515CC8407047DC0000200838024005
:101E5000F05100080448054900680968044AC1F3C4
:101E60004231515CC8407047DC0000200838024015
:101E7000F0510008154810B5006810F00C02144825
:101E800013D04110042A0FD0082A0ED10F4C241F62
:101E90002268236802F03F025B0207D52068C0F386
:101EA0008810A0FB010106E0084610BD2168C1F3BF
:101EB0008811A1FB00010023FEF708FA2168C1F395
:101EC0000141491C4900B0FBF1F010BD0838024047
:101ED0000024F4002DE9F84F04006ED02078DFF8DC
:101EE0004C93C007A9F104054AD009F10400016828
:101EF000C1F38101012908D00068C0F381000228E4
:101F00000AD1D9F80000400206D52868800337D5E9
:101F100060680028E1D033E06068B0F5803F10D001
:101F2000B0F5A02F286810D020F4803028602868F1
:101F300020F4802028606068A8B1FFF7B1FC064655
:101F40000DE0286840F48030F4E740F480202860F9
:101F5000F7E700BFFFF7A4FC801B642873D828684C
:101F60008003F7D50CE0FFF79BFC064605E000BFB9
:101F7000FFF796FC801B6428F0D828688003F7D40C
:101F80002078DFF8AC8280074FF0000A3ED5A748E2
:101F9000001D016811F00C0F08D00068C0F381002B
:101FA00002280BD1D9F80000400207D42868800726
:101FB00016D5E068012800D112E033E1E068B8B13D
:101FC0000120C8F80000FFF76BFC064605E000BFE3
:101FD000FFF766FC801B0228C0D828688007F7D569
:101FE0002868216920F0F80040EAC10028600DE06F
:101FF000C8F800A0FFF754FC064604E0FFF750FCC9
:10200000801B02281FD828688007F7D42078000793
:1020100022D5864F87486169703771B1012101600F
:10202000FFF73EFC064604E0FFF73AFC801B02285F
:1020300009D838688007F7D50EE0C0F800A0FFF790
:102040002FFC064605E082E0FFF72AFC801B0228F1
:102050007DD838688007F7D42078400768D5DFF846
:10206000CCB100270BF13C0BDBF80000C0000BD417
:10207000DBF8001041F08051CBF80010DBF80000D5
:10208000012700F0805000906B4E3068C00510D4DE
:10209000306840F480703060FFF702FC009005E08B
:1020A000FFF7FEFB0099401A022850D83068C0059F
:1020B000F6D55E4EA0686C3601280FD00528306832
:1020C00010D020F001003060306820F00400306053
:1020D000A068B8B1FFF7E4FB00900FE0306840F073
:1020E0000100F4E740F004003060F7E7FFF7D8FBA9
:1020F0000099411A41F28830814266D830688007E1
:10210000F4D50EE0FFF7CCFB009007E0FFF7C8FB2B
:102110000099411A41F28830814256D830688007D0
:10212000F4D42FB1DBF8001021F08051CBF800106F
:10213000A069C8B33D49091D0968C1F3810102299D
:102140004AD00228504607D0C8F8600000E03CE0C2
:10215000FFF7A6FB04463BE04746C8F86000FFF7E0
:102160009FFB064605E000BFFFF79AFB801B022895
:102170002BD828688001F7D4D4E907010843A16A65
:102180002E4A490802EB0141626A41EA8211084382
:1021900094F82C1040EA0161C9F80010012038665B
:1021A000FFF77EFB044606E03EE000BFFFF778FB4A
:1021B000001B022809D828688001F7D534E000BF49
:1021C000FFF76EFB001B022802D90320BDE8F88F41
:1021D00028688001F4D427E00128F7D0D9F800005E
:1021E000E26900F4800191421CD1226A00F03F01B3
:1021F000914217D147F6C071626A0140B1EB821F6C
:1022000010D1A26A4FF0FF3300F4403103EB5202C9
:10221000B1EB024F06D194F82C1000F07060B0EBD7
:10222000016F01D00120D1E70020CFE70438024040
:1022300000004742800E4742007000400000FFFF50
:1022400010B5401EB0F1807F01D3012010BD4FF0CA
:10225000E02460610F21601702F0A8F90020A0615E
:1022600007202061002010BD7047704710B590F81E
:102270003C20012A22D0012280F83C20CA688C68C8
:1022800022F4407222434C6822F4806222430C689C
:1022900022F4006222430C6922F4805222434C69EA
:1022A00022F400522243C969002322F480420A43E7
:1022B00001684A6480F83C30002010BD022010BD47
:1022C00070B590F83C20012A32D0012480F83C40BF
:1022D000022280F83D2003685A689D6822F070064B
:1022E0000A6832435A60134B02689A4214D0B2F122
:1022F000804F11D0104B9A420ED0104B9A420BD007
:102300000F4B9A4208D00F4B9A4205D00E4B9A427F
:1023100002D00E4B9A4204D1496825F0800319433C
:10232000916080F83D40002180F83C10084670BD67
:10233000022070BD00000140000400400008004081
:10234000000C004000040140004001400018004023
:1023500010B5040003D094F83D0010B107E001204F
:1023600010BD002084F83C00204600F01FF8022039
:1023700084F83D00211D206801F06EFE012084F8E4
:10238000460084F83E0084F83F0084F8400084F85A
:10239000410084F8420084F8430084F8440084F843
:1023A000450084F83D00002010BD000008B501681C
:1023B0003C48814227D13C48016841F0010101605D
:1023C0000068002200F00100009011461820FFF77D
:1023D00065FC1820FFF754FC002211461920FFF776
:1023E0005DFC1920FFF74CFC002211461A20FFF774
:1023F00055FC1A20FFF744FC002211461B20FFF772
:102400004DFC1B2048E02848001FB1F1804F11D03F
:10241000264A91421DD1016841F002010160006825
:10242000002200F00200009011461D20FFF736FC4C
:102430001D2031E0016841F00101016000680022C7
:1024400000F00100009011461C20FFF727FC1C2023
:1024500022E0174A91420ED1016841F00401016067
:102460000068002200F00400009011461E20FFF7D3
:1024700015FC1E2010E00F4A914211D1016841F075
:10248000100101600068002200F010000090114669
:102490003620FFF703FC3620BDE80840FFF7F0BB0D
:1024A00008BD000000000140443802400004004024
:1024B000000800400010004090F83D10012901D0B4
:1024C00001207047022180F83D100168CA6842F07F
:1024D0000102CA6000681149884214D0B0F1804FEF
:1024E00011D00F4988420ED00E4988420BD00E49B8
:1024F000884208D00D49884205D00D49884202D053
:102500000C49884204D1816801F00701062903D0F3
:10251000016841F0010101600020704700000140A6
:102520000004004000080040000C0040000401408E
:10253000004001400018004070B5044690F83C008F
:102540000025012817D0012684F83C60022084F879
:102550003D002068826822F0770222F47F42826088
:102560000868502838D00DDC20284FD005DC90B307
:10257000102811D14AE0022070BD302846D04028F2
:102580000AD13BE060282FD070280DD0B0F5805FD5
:1025900003D0B0F5005F12D0012584F83D60002023
:1025A00084F83C00284670BDCB68D1E90121206841
:1025B00001F0C3FD2068816841F0770109E0CB6834
:1025C000D1E90121206801F0B8FD2068816841F45B
:1025D00080418160E1E719E0CA684968206801F03C
:1025E00081FE5021206806E0CA684968206801F031
:1025F0008AFE6021206801F0AAFDCEE7CA6849681A
:10260000206801F06FFE40212068F4E7226801464F
:102610001046F0E7704770B50446006801694FF056
:102620000005C943890715D4C168C943890711D476
:10263000E91E01610120207720688069800720461B
:1026400002D0FFF7E7FF04E000F0C2F8204600F0F8
:1026500054F9257720680169C943490717D4C1682F
:10266000C943490713D46FF00401016102202077A8
:102670002068806910F4407F204602D0FFF7CAFF2F
:1026800004E000F0A5F8204600F037F9257720682F
:102690000169C943090716D4C168C943090712D49F
:1026A0006FF008010161042020772068C06980076D
:1026B000204602D0FFF7AEFF04E000F089F8204684
:1026C00000F01BF9257720680169C943C90617D4B2
:1026D000C168C943C90613D46FF010010161082015
:1026E00020772068C06910F4407F204602D0FFF7B1
:1026F00091FF04E000F06CF8204600F0FEF825772A
:1027000020680169C943C90708D1C168C943C9071D
:1027100004D1891E0161204600F054F92068016946
:10272000C943090609D4C168C943090605D46FF035
:10273000800101612046FFF797FD20680169C943C8
:10274000490609D4C168C943490605D46FF0400160
:102750000161204600F086FA20680169C9438906B4
:102760000BD4C168C943890607D46FF02001016109
:102770002046BDE87040FFF778BD70BD10B586B04B
:10278000044614216846FDF7D9FD0E4920688842A9
:1027900016D10D480021026842F010020260006864
:1027A00000F0100005904FF4285000900220CDE971
:1027B00001010120CDE9031069460448FEF76EFFD0
:1027C00006B010BD00000140303802400010024049
:1027D000704770B5044690F83C0000260D4601286D
:1027E0000FD0012084F83C006AB1042A1DD0082AC9
:1027F0002FD00C2A3FD00126002084F83C00304620
:1028000070BD022070BD206801F0AAFC20688169BB
:1028100041F0080181612068816921F00401816132
:10282000206881692A69114311E0206801F0C8FC21
:102830002068816941F4006181612068816921F427
:1028400080618161206881692A6941EA0221816190
:10285000D2E7206801F0EAFC2068C16941F0080174
:10286000C1612068C16921F00401C1612068C169AA
:102870002A69114311E0206801F00CFD2068C1694C
:1028800041F40061C1612068C16921F48061C161C6
:102890002068C1692A6941EA0221C161ACE710B52B
:1028A000040003D094F83D0010B107E0012010BDF2
:1028B000002084F83C00204600F01EF8022084F836
:1028C0003D00211D206801F0C7FB012084F846006F
:1028D00084F83E0084F83F0084F8400084F841000A
:1028E00084F8420084F8430084F8440084F84500EA
:1028F00084F83D00002010BD7047704710B50446B5
:10290000022249B104290ED0082913D094F84100BD
:10291000012816D0012010BD94F83E000128F9D1FD
:1029200084F83E200FE094F83F000128F2D184F8AB
:102930003F2008E094F840000128EBD184F84020C3
:1029400001E084F841200122206801F0E9FB1649EA
:102950002068164A884201D0904203D1436C43F468
:10296000004343642068884213D0B0F1804F10D0F8
:102970000F4988420DD00F4988420AD00E4988423B
:1029800007D0904205D00D49884202D00C498842B8
:1029900004D1816801F00701062903D0016841F0E4
:1029A00001010160002010BD000001400004014051
:1029B0000004004000080040000C004000400140BE
:1029C0000018004070B504469048914D84422DEDAA
:1029D000028B3DD1DFED8F0AB7EE000A42F2107094
:1029E00001F0A4F92846FEF77BF995ED000A0A20CC
:1029F000FEF726F885ED060A95ED010A0A20FDF797
:102A0000CDFF85ED070A95ED020A0A20FEF76AF868
:102A100085ED080A95ED061ADFED7F0A71EE601A62
:102A20009FED7E1A30EE600A81EE812AC0EE010A27
:102A300085ED0C2AC5ED0E0A95ED070ADFED780A43
:102A400030EE600ADFED770A80EE201A85ED0D1A70
:102A5000754884420DD195ED0C0A6D48B1EE400ADF
:102A60005C3801F0D9F96A4895ED0D0A743801F027
:102A7000FBF86E4884427DD165486D4C743890ED0A
:102A8000052AF1EE420AC4ED0A0AD4ED0B1A9FEDB5
:102A9000693A694940EE831AC4ED0B1AD0ED042A55
:102AA00094ED050A11EE900A30EE621A84ED0C1ACC
:102AB00094ED0D0A01EE030A84ED0D0A9FED5F3AD5
:102AC000884201DD84ED0B3A5D48DFED5E1AE26A73
:102AD000824201D9C4ED0B1A10EE102A8A4201DDA0
:102AE00084ED0D3A616B814201D9C4ED0D1A94ED6C
:102AF000030AD4ED0D1A464820EE010A94ED041A9B
:102B00005C3801EE210A90ED041A30EE011A9FEDB7
:102B10004E0A4E4E02EE401A84ED0F1A94ED011A41
:102B2000D4ED0B1A61EE200A94ED021A41EE210A4F
:102B300052EE800AC4ED100A96ED000ADFED448AD9
:102B400020EE280AFDF73CFBD4ED0F0A20EE208A88
:102B500096ED000A20EE280AFDF76EFBD4ED100A70
:102B60004FF07E5100EE808AF7EE000A84ED0E8A67
:102B7000A86B00E046E0884201DCC5ED0E0A95ED49
:102B80000E1A88EE010A10EE100A84ED070A884238
:102B900001DDC4ED070AE06910F1814F03D9BFEEF2
:102BA000000A84ED070A94ED072A9FED2A0ADFED5B
:102BB0002B2ADFED290A62EE001A22EE222AB6EE57
:102BC000000AB0EE601A264801EE801A42EE000AB2
:102BD000D4ED061A21EE001A20EE800A21EE211A09
:102BE00020EE210A84ED091A84ED080ABCEEC00A21
:102BF000026810EE101A9163BCEEC10A006810EE74
:102C0000101AC163BDEC028B70BD0000AC0D00203A
:102C1000900B0020D7B3DD3F85EBD13F787A253C80
:102C200046B6D33FCDCCCC3E640D00203C0E0020F8
:102C30007800002017B75138CDCC4C3FCDCC4C3F5D
:102C4000CDCC4CBFCDCC4CBF7BD9203FB00F0020AA
:102C5000DA0F49400020004600208045002000C6D1
:102C60001C0D00207047704770470000F8B50168E0
:102C700004460868CA684B6910F00F0F4FF0000552
:102C800059D003F0010602F49077374365D0C107AD
:102C900005D0D10503D5216C41F001012164410724
:102CA00005D5D90703D0216C41F0020121648107C9
:102CB00005D5D90703D0216C41F004012164010737
:102CC00007D502F02001314303D0216C41F0080107
:102CD0002164216C00293AD0800604D5900602D5E3
:102CE000204601F051FB20684069216CC0F3801040
:102CF000090700D460B3204601F01FFB206840693B
:102D0000400621D52068143050E8001F21F0400112
:102D100040E80012002AF5D1A06BA8B16C4901650A
:102D2000A06BFEF724FB002811D0A06B016D01B051
:102D3000BDE8F040084783060FD593060DD5204621
:102D4000BDE8F84001F020BB2046FFF78DFFF8BD3D
:102D50002046FFF789FF2564F8BD266B2023012E4E
:102D600079D1C60677D5D60675D50868486800902B
:102D70004869400640D5A16B086840680004000C13
:102D8000EAD0A28D8242E7D9E085C869B0F5807F9C
:102D90002DD020680C3050E8001F21F4807140E8ED
:102DA0000012002AF5D12068143050E8001F21F0ED
:102DB000010140E80012002AF5D12068143050E8E3
:102DC000001F21F0400140E80012002AF5D184F8EC
:102DD0003E30256320680C3050E8001F21F01001C0
:102DE00040E80012002AF5D1A06BFEF777FAA08D1B
:102DF000E18D401A81B229E0A08DE18D401A81B2A7
:102E0000E08D0028A8D00029A6D020680C3050E81A
:102E1000002F22F4907240E80026002EF5D12068A1
:102E2000143050E8002F22F0010240E80026002E66
:102E3000F5D184F83E30256320680C3050E8002F2F
:102E400022F0100240E80023002BF5D12046FFF7C6
:102E50000AFFF8BDFFE705062BD5150629D594F81E
:102E60003D002128F5D1A068B0F5805F01D120692F
:102E7000B0B1206A411C2162216800784860E08C72
:102E8000401E0004000CE084E3D12068C16821F0FA
:102E90008001C1602068C16841F04001C160D8E78D
:102EA000206A0088C0F308004860206A801C206205
:102EB000E5E74006CDD55006CBD5CA68204622F0BE
:102EC0004002CA6084F83D3000F0ABF8C1E7000072
:102ED0002B43000870B5040004D094F83D00002591
:102EE00010B106E0012070BD84F83C50204600F08F
:102EF00023F8242084F83D002068C16821F40051A3
:102F0000C160204601F0A0FA2068016921F49041D7
:102F100001612068416921F02A0141612068C1688E
:102F200041F40051C1602564202084F83D0084F8FC
:102F30003E00002070BD00002DE9F04186B006463D
:102F400014216846FDF7FAF930493068884259D1B2
:102F50002F480024016841F010010160006800F072
:102F6000100005902A481438016841F00101016001
:102F70000068694600F0010005904FF4C0600090C1
:102F80000220CDE90104032003900720049021488A
:102F9000FEF784FB214D20484FF000672860C5E90B
:102FA00001744FF48068C5E903486C61AC61EC6161
:102FB0002C6228466C62FEF7BDFA08B1FDF78EFE62
:102FC000B563AE63154D144860357830E5E8020707
:102FD0004020A5E81101114845F814496030AC6162
:102FE000EC612C626C62FEF7A5FA08B1FDF776FE83
:102FF0007563002211462520AE63FEF74FFE2520A3
:10300000FEF73EFE06B0BDE8F08100000010014072
:10301000443802400000024040640240C80E0020D4
:1030200070477047FEE701684A69D24352050FD4E2
:103030006FF480624A61002140F8301F2022427301
:103040008173026942F0040202610173012070473A
:10305000002070472DE9F843044600680D46DDE97D
:10306000089701689846164641F4807101604B4606
:1030700000224FF001112046009700F065F848B19A
:1030800020680068C00502D54FF40070206403205A
:10309000BDE8F883216805F0FE0008613B464A461A
:1030A0001549204600F084F888B920684169806994
:1030B00000903A464946204600F0C5F848B1206CD9
:1030C000042804D12068016841F4007101600120E6
:1030D000DEE7F5B2B8F1010F09D02168300A0861C6
:1030E0003A464946204600F0AEF80028E7D120686D
:1030F00005610020CCE700000200010070B5164613
:103100000D4604460DE02046FFF78DFF08B1012073
:1031100070BD681C05D0FEF7C3FB801BA84207D812
:1031200035B120684069C0434007ECD4002070BD31
:10313000002044F8300F20216173A073216941F011
:10314000200121612073E2E72DE9F0471E469046F9
:103150000D460446C1F30747DDF8209008E0701CD7
:1031600006D0FEF79DFBA0EB0900B0420FD876B168
:103170002068012F18D0806925EA00000004000CA7
:1031800014D000214145EAD00020BDE8F08700209E
:1031900044F8300F20216173A073216941F02001B0
:1031A000216120730120F0E74069E5E70121E9E7AB
:1031B0002DE9F0479A4691460E46044600254FF009
:1031C0002008C1F3074725E020684069C043400557
:1031D00014D42068016841F40071016021686FF423
:1031E00080604861256384F83D8084F83E50206CFF
:1031F00040F00400206484F83C501FE0B9F1FF3F28
:1032000008D0FEF74DFBA0EB0A0149450CD8B9F1F7
:10321000000F09D02068012F13D0806926EA000032
:103220000004000C0BD0CFE744F8305F84F80D8029
:10323000A573206940F02000206125730120BDE8BE
:10324000F0874069EAE770B516460D4604460DE082
:103250002046FFF7E8FE08B1012070BD681C05D0CC
:10326000FEF71EFB801BA84207D835B120684069D5
:10327000C0430006ECD4002070BD002044F8300F9D
:1032800020216173A073216941F020012161207325
:10329000E2E700002DE9F0470026234C234F0125EB
:1032A0004FF480584FF4807908B1257001E0207800
:1032B00048B141463846FEF7E9FA58B14946384622
:1032C000FEF7E4FA30B141463846FEF7DFFA01284E
:1032D0001ED026E0D4E90110084304D14FF4FA705F
:1032E000FDF7E1FC65600A20FDF7DDFC2670414634
:1032F0003846A660FEF7CAFA28B149463846FEF7B6
:10330000C5FA18B10DE00120BDE8F0870220FBE707
:1033100049463846FEF7BAFA012802D12570C4E9B9
:1033200001650020F0E700006C0000200000024072
:103330002DE9F0410126244D244C770208B16E702E
:1033400001E0687870B139462046FEF79FFA80B1F7
:1033500020212046FEF79AFA58B102212046FEF7B6
:1033600095FA30B139462046FEF790FA01281CD074
:1033700028E00A20FDF797FC0020687039462046B7
:10338000FEF784FA50B120212046FEF77FFA40B1C3
:1033900002212046FEF77AFA28B113E00420BDE8A6
:1033A000F0810520FBE70620F9E720212046FEF703
:1033B0006DFA012806D102212046FEF767FA01289E
:1033C00000D16E700020EAE76C000020000402408B
:1033D0007FB500252948009501950295264903955A
:1033E000016001244FF480310461C0E901150576C4
:1033F00080F820502249C0E90A150526C661C5603B
:1034000080F830404461FDF772FD08B1FDF766FCBD
:10341000CDE900540225694618480295FDF7BEFC27
:1034200008B1FDF75BFC69461448CDE90045FDF79E
:10343000B5FC08B1FDF752FC0324CDE90054694600
:103440000E48FDF7ABFC08B1FDF748FC0420CDE9C0
:10345000004069460948FDF7A1FC08B1FDF73EFCB4
:103460001120CDE9000669460448FDF797FC0028C5
:1034700001D0FDF733FC7FBD002001400C0C002083
:103480000100000F1CB500240C4900940A48019467
:1034900008600846FDF7A7FE08B1FDF71FFC009481
:1034A0000022694605480194FDF745FE002801D039
:1034B000FDF714FC1CBD000000740040B40C00209B
:1034C000114808B5016841F48001016000680022DC
:1034D00000F48000009011463820FEF7DFFB382012
:1034E000FEF7CEFB002211463A20FEF7D7FB3A202A
:1034F000FEF7C6FB002211464620FEF7CFFBBDE8D3
:1035000008404620FEF7BCBB3038024070B586B09C
:1035100014216846FCF712FF26480024016841F098
:1035200010010160016801F010010591016841F08E
:1035300004010160016801F004010591016841F096
:1035400080010160016801F080010591016841F08E
:1035500001010160016801F001010591016841F07C
:10356000020101600068144E00F002000590002284
:1035700061213046FEF78FF961200125CDE9000574
:103580000220CDE9024069463046FEF787F840F256
:1035900022208DE8310069460848FEF77FF84FF495
:1035A000C8508DE8310069460548FEF777F806B047
:1035B00070BD00003038024000100240000402409C
:1035C000000002400D4810B50B4901600C494160F4
:1035D00000214FF480428160C0E9031241618161A2
:1035E000C1610162FEF762F9002803D0BDE8104016
:1035F000FDF774BB10BD000000540040C80C002053
:10360000A086010010B596B000240F941094119478
:10361000129413941C2168461494FCF78FFE202109
:1036200007A8FCF78BFE32483049C0E9001420217E
:10363000816041F26701C0E903148021C0E90541BE
:10364000FEF786FE08B1FDF749FB4FF480500F905E
:103650000FA92748FEF770FF08B1FDF73FFB24488C
:10366000FFF71DF908B1FDF739FB139413A92048A2
:103670001494FEF725FE08B1FDF730FB60200090A2
:1036800040F63400CDE9010403940494059400222B
:10369000694617480694FFF79CF808B1FDF71EFB32
:1036A000042269461248FFF794F808B1FDF716FBAB
:1036B000082269460E48FFF78CF808B1FDF70EFBAB
:1036C0000794089409944FF400500A94CDE90B40F4
:1036D00007A907480E94FEF7C9FD08B1FDF7FEFAE9
:1036E0000348FFF74BF816B010BD00000000014082
:1036F0001C0D002010B586B00024164800940194DB
:103700000294039404944FF080410594C0E900149E
:1037100041F26701C0E90241802104618161FEF745
:1037200017FE08B1FDF7DAFA4FF4805000906946B1
:103730000848FEF701FF08B1FDF7D0FA049404A988
:1037400004480594FEF7BCFD002801D0FDF7C6FA39
:1037500006B010BD640D002010B586B000241748D7
:103760000094019402940394049413490594C0E9CD
:10377000001442F2CF01C0E902418021046181615D
:10378000FEF7E6FD08B1FDF7A9FA4FF4805000906E
:1037900069460A48FEF7D0FE08B1FDF79FFA049487
:1037A00004A906480594FEF78BFD002801D0FDF71B
:1037B00095FA06B010BD000000040040AC0D0020DA
:1037C00010B586B000241748009401940294039425
:1037D000049413490594C0E9001440F63301C0E98C
:1037E0000241802104618161FEF7B2FD08B1FDF75D
:1037F00075FA4FF48050009069460A48FEF79CFE27
:1038000008B1FDF76BFA049404A906480594FEF785
:1038100057FD002801D0FDF761FA06B010BD000089
:1038200000080040F40D00201CB500240E48009450
:103830000C490194C0E9001440F63301C0E902418B
:1038400080218161FEF784FD08B1FDF747FA0094FD
:10385000694605480194FEF733FD002801D0FDF7C5
:103860003DFA1CBD001000403C0E00200C4810B575
:103870000A4901604FF4E1314160002181600C226E
:10388000C160C0E904128161C161FFF723FB002818
:1038900003D0BDE81040FDF721BA10BD0010014073
:1038A000840E0020FEE7FEE70A2A25D2DFE802F0B8
:1038B00005080B0E1114171A1D2002230FA219E080
:1038C00002230FA216E002230EA213E002230EA28F
:1038D00010E002230DA20DE002230DA20AE0022354
:1038E0000CA207E002230CA204E002230BA201E0D9
:1038F00002230BA200F0B8B87047000030000000AF
:1039000031000000320000003300000034000000ED
:1039100035000000360000003700000038000000CD
:103920003900000010B5002000F006F8BDE8104096
:103930006420FDF7A1BE000070B506465FF00004EC
:1039400004F1B000C0B200F00DFE002000F00AFE4D
:10395000102000F007FE0025304600F015FE6D1C1B
:10396000EDB2802DF8D3641CE4B2082CE8D370BD0E
:1039700010B5C820FDF780FEAE2000F0F3FD20203A
:1039800000F0F0FD102000F0EDFDB02000F0EAFDA9
:10399000C82000F0E7FD002000F0E4FD102000F05A
:1039A000E1FD402000F0DEFD812000F0DBFDFF2086
:1039B00000F0D8FDA12000F0D5FDA62000F0D2FD3A
:1039C000A82000F0CFFD3F2000F0CCFDA42000F0A7
:1039D000C9FDD32000F0C6FD002000F0C3FDD520B6
:1039E00000F0C0FDF02000F0BDFDD92000F0BAFDD0
:1039F000222000F0B7FDDA2000F0B4FD122000F024
:103A0000B1FDDB2000F0AEFD202000F0ABFD8D20ED
:103A100000F0A8FD142000F0A5FDAF2000F0A2FDED
:103A2000BDE810406420FDF727BE10B58D2000F0E2
:103A300099FD142000F096FDBDE81040AF2000F085
:103A400091BD10B50446B031C8B200F08BFD102016
:103A500040EA141000F086FD04F00F00BDE81040AD
:103A600040F0010000F07EBD2DE9F04700259146B1
:103A70008A460446012B22D0DFF8BC80022B24D1D9
:103A800055E02038C7B27E2C04D90AF10100002489
:103A900000F0FF0A51462046FFF7D3FF07EB47002F
:103AA000002608EB4007B85D00F06EFD761CF6B20C
:103AB000062EF8D3A41D6D1CE4B2EDB201E0DFF8D0
:103AC0007C8019F805000028DBD1BDE8F08720389C
:103AD000C7B2782C04D90AF10100002400F0FF0AD3
:103AE00051462046FFF7ADFF5FF0000606EB0711D9
:103AF00018F8010000F048FD761CF6B2082EF5D348
:103B00000AF10100C1B22046FFF79BFF5FF00006FB
:103B100006EB071101EB0800007A00F035FD761C7A
:103B2000F6B2082EF4D308346D1CE4B2EDB219F8E5
:103B300005000028CBD1C8E7E84B0008C0490008C1
:103B40009FED090A80ED010A9FED080A80ED020A47
:103B500080ED050AB7EE000A80ED060A9FED040A23
:103B600080ED070A7047000017B7D1380000000049
:103B7000CDCC4C3ED0ED000A30EEC00A80ED040AF8
:103B8000D0ED080A90ED011AD0ED051A41EE000AB9
:103B900090ED021A41EE210A90ED031AD0ED061ABB
:103BA00041EE210AC0ED070A90ED091AF4EEC10AB0
:103BB000F1EE10FA02DCB0EE601A01E080ED071AB7
:103BC000D0ED0A0AB4EEE01AF1EE10FA02D3F0EEEC
:103BD000410A01E0C0ED070AC0ED080A80ED050AC0
:103BE00080ED060A704700009FED170ADFED170A07
:103BF00081ED000A81ED010AC1ED040A81ED050A9B
:103C000081ED060A80ED000A80ED010A1048DFED23
:103C1000110A80ED010A80ED000A80ED020A80EDB4
:103C2000030AC0ED050ADFED0C0AC0ED040ADFED62
:103C30000B0A80ED060AC0ED070ADFED090AC0EDA8
:103C4000080A80ED090A704700000000DA0FC93F3A
:103C5000880F00200AD7233D9A9999400000FA4422
:103C60000000FAC47047000070B5DFED2D1A04465D
:103C70002DED028BD0ED010A90ED021A9FED278AFF
:103C800030EE600A274D30EE410A9FED231A20EEF8
:103C9000010A20EE080A80ED000A40EE210AC0ED7C
:103CA000010A90ED030A00EEA10A80ED030A20EE5E
:103CB000010A20EE080A84ED020A95ED000A20EEC2
:103CC000080AFCF77DFAD4ED020A60EE208A95ED31
:103CD000000A20EE080AFCF7AFFAD4ED010A40EE24
:103CE000608AC4ED058A95ED000A20EE080AFCF70B
:103CF00067FAD4ED010A60EE208A95ED000A20EE05
:103D0000080AFCF799FAD4ED020A40EE208AC4EDC5
:103D1000048ABDEC028B70BD0000C842DB0F494035
:103D200017B75138B00F0020704700009FED301AD0
:103D300010B520EE010A2DED068B3221B0FBF1F01B
:103D400080EE209A00EE100ADFED2B8A294CB8EEA7
:103D5000400AF0EE009A9FED29AAC8EE800AC4ED51
:103D6000020AD4ED010A80EEA80A20EE290A20EE0C
:103D70000A0AFCF761FA20EE090A21489FED218A20
:103D800080ED000AD4ED010A80EEA80A60EE290A4F
:103D9000B0EE480A00EE8A0AFCF74EFA20EE090A55
:103DA000194880ED000A94ED010AC0EE280A20EEC1
:103DB000A90A10EE0A8AB0EE480AFCF73DFA20EE96
:103DC000090A1248124980ED000A94ED010AD4ED67
:103DD000020A30EE200A10EE100A84ED010A884231
:103DE00003DB9FED0C0A84ED010ABDEC068B10BDD0
:103DF000D7B3DD3F000000200000B443DA0F494094
:103E0000C4000020910A0640C8000020CC00002019
:103E10000000B4430000000070B5464C05462DED8F
:103E2000028BF0EE408A94ED000A9FED438A20EE6B
:103E3000080AFCF701FA84ED010A94ED000A20EE6D
:103E4000080AFCF7BDF984ED020AB0EE680A3B48A7
:103E5000FCF79AFE3948B0EE680A2C30FCF794FE65
:103E6000364890ED080A2C3084ED030A90ED080ADC
:103E700084ED040A94ED000A20EE080AFCF7A0F98C
:103E8000D4ED040A60EE208A94ED000A20EE080AC0
:103E9000FCF7D2F9D4ED030A40EE608AC5ED058A3D
:103EA00094ED000A20EE080AFCF78AF9D4ED030A23
:103EB00060EE208A94ED000A20EE080AFCF7BCF9B7
:103EC000D4ED040A1D4840EE208A6C30B1EE680A39
:103ED00085ED040A94ED031A94ED020AD4ED041A58
:103EE000D4ED010A21EE002A21EE800A01EEA02A7B
:103EF00001EE600A84ED052A84ED060AFFF73AFE1A
:103F00000E486C3090ED070A00F070FB0B485830FB
:103F100090ED030A5C38D0ED000A30EE200A84ED03
:103F2000000A20EE080AFCF74BF984ED070ABDEC05
:103F3000028B70BDB00F0020DB0F4940E400002071
:103F4000FDF744BE30B593B030216846FCF7F6F972
:103F500014210CA8FCF7F2F91D480025016841F076
:103F600080510160006800F080501190194801688C
:103F700041F4804101600068022400F48040119007
:103F800001200090000401908001CDE9064008AABC
:103F90000420A82182E813000B906846FDF79AFFE1
:103FA00008B172B6FEE70CA90F2081E831004FF48A
:103FB000A0500F904FF48050109005210CA8FDF7F1
:103FC0009FFE002801D072B6FEE713B030BD00009E
:103FD00040380240007000400248016841F470011E
:103FE0000160704788ED00E00148FEF714BB000057
:103FF0001C0D00200148FEF70EBB00001C0D002028
:104000000148FEF708BB00001C0D00200148FEF728
:1040100002BB00001C0D00200148FEF7FCBA0000A6
:10402000640D00200148FEF7F6BA0000AC0D002038
:104030000148FEF7F0BA0000F40D002010B5044866
:10404000FDF79DF8BDE810400248FEF7E4BA000015
:10405000B40C00203C0E0020F0B50268254C264D23
:10406000264E274F274B4FF0804CA04209D0604589
:1040700007D0A84205D0B04203D0B84201D0984240
:1040800004D122F0700E4A6842EA0E02A0421BD010
:10409000604519D0A84217D0B04215D0B84213D00D
:1040A000984211D0184DA8420ED0184DA8420BD0FE
:1040B000174DA84208D0174DA84205D0164DA8426A
:1040C00002D0164DA84203D122F44075CA682A4393
:1040D0004D6922F080022A4302608A68C2620A683F
:1040E0008262A04201D0984201D109690163012195
:1040F0004161F0BD000001400004004000080040A4
:10410000000C004000040140004001400044014018
:104110000048014000180040001C00400020004002
:1041200010B501F01F030121046A99408C43046219
:10413000016A9A401143016210BD10B5846842EAD9
:10414000032224F47F440A432243826010BD826824
:1041500022F070020A4342F00701816070470000BC
:10416000F0B5026A22F001020262036A42688469C1
:10417000124E24F073050C682C4323F002058B6863
:104180002B430D4DA84201D0B04205D123F00807C2
:10419000CB683B4323F00403A84201D0B04205D1D1
:1041A0004D6922F4407215438A692A434260846152
:1041B000496841630362F0BD000001400004014012
:1041C000F0B5026A22F010020262026A4368846952
:1041D0000D6824F4E64444EA05248D6822F02002A8
:1041E00042EA05120F4D104EA84201D0B04206D14E
:1041F000CF6822F0800242EA071222F04002A84271
:1042000001D0B04207D14D6923F4406343EA8503EE
:104210008D6943EA85034360846149688163026272
:10422000F0BD00000000014000040140F0B5026A4A
:1042300022F480720262026A4368C46922F4007246
:1042400024F073050C68124E2C438D6842EA052257
:104250000E4DA84201D0B04206D1CF6822F40062D0
:1042600042EA072222F48062A84201D0B04207D17C
:104270004D6923F4405343EA05138D6943EA05135E
:104280004360C4614968C1630262F0BD000001403F
:104290000004014030B5026A22F480520262046ACE
:1042A0004268C3690D6823F4E64343EA05238D6839
:1042B00024F4005444EA0534084DA84202D0084DC5
:1042C000A84204D14D6922F4804242EA851242603C
:1042D000C36149680164046230BD00000000014010
:1042E0000004014010B5036A046A24F0010404626A
:1042F000846924F0F00444EA021423F00A020A4319
:104300008461026210BD10B5036A23F010030362DA
:104310008369046A23F4704343EA023224F0A00361
:1043200043EA01118261016210BD10B5806B00216A
:10433000C185C184FEF798FC10BD01680C3151E8BD
:10434000002F22F4907241E80023002BF5D1016880
:10435000143151E8002F22F0010241E80023002B24
:10436000F5D1016B012909D101680C3151E8002F09
:1043700022F0100241E80023002BF5D1202180F823
:104380003E1000210163704708B590F83E102229C5
:1043900001D0022008BD82684FF480539A4201D1B7
:1043A000016921B1816A9A421BD04AB10AE00268D0
:1043B000816A5268C2F308020A80816A891C08E097
:1043C000026972B10268526802F07F020A70816A63
:1043D000491C8162C18D491E0904090CC18503D0A5
:1043E00019E002685268F1E70168CA6822F0200209
:1043F000CA600168CA6822F48072CA6001684A69AA
:1044000022F001024A61202180F83E10016B01294F
:1044100003D0FEF705FE002008BD002101630168FE
:104420000C3151E8002F22F0100241E80023002B4C
:10443000F5D101680A68D20602D50A684968009178
:10444000818DFEF710FCE6E770B50446006801694F
:10445000E26821F44051114301612169A068E269D9
:1044600008436169114308432168CA6849F20C6333
:104470009A430243CA6020684169A26921F44071ED
:104480001143416131492068884202D03049884255
:1044900002D1FDF7DFFC01E0FDF7CCFCE26900236F
:1044A000192164253226B2F5004F626828D0A0FB9E
:1044B0000101930F9200FBF709FF0146B0FBF5F0F5
:1044C0006FF01802504301EB800006EB0010B0FBC8
:1044D000F5F000F0F002B1FBF5F002EB0012B1FBD9
:1044E000F5F06FF01803584301EB800006EB001065
:1044F000B0FBF5F000F00F0021681044886070BD3B
:10450000A0FB010192185B41FBF7E0FE0146B0FB06
:10451000F5F00201B1FBF5F06FF01803584301EB21
:10452000800006EBC000B0FBF5F000F0F80002EBF5
:104530004002B1FBF5F0584301EB800006EBC000F0
:10454000B0FBF5F000F00700D6E7000000100140D6
:10455000001401400148FEF789BB0000840E0020D2
:10456000FEE7000001B584B00121642204A88DE8B3
:1045700007000B46002278210248FDF75BFA05B0E0
:1045800000BD0000C80C002001B584B001216422E8
:1045900004A88DE807000B46402278210248FDF769
:1045A00049FA05B000BD0000C80C00200907090E3B
:1045B000002804DB00F1E02080F80014704700F0D0
:1045C0000F0000F1E02080F8141D704702E008C8D9
:1045D000121F08C1002AFAD170477047002001E07D
:1045E00001C1121F002AFBD170470000DFED160A3F
:1045F000164870EE200AC0ED010A90ED000AD0EDD9
:10460000021A20EE201A00EE211A90ED040A31EE73
:10461000000AB0EE001A10EE101A80ED030AB1F194
:10462000804F02DD30EE410A06E010EE101AB1F1C3
:10463000404F03D930EE010A80ED030A80ED040AF1
:10464000C0ED020A7047000063149D433C01002046
:104650002DED068BFDF7C2FAFFF774FCFEF756FF4F
:10466000FEF72EFFFEF7B4FEFEF7CCFFFFF742F891
:10467000FFF772F8FEF706FFFFF7F8F8FFF7A0F86C
:10468000FEF7A0FFFFF7D0F8FFF772F9FFF74AF93E
:104690000223A7A219462720FFF7E6F90223A6A2C4
:1046A00004210020FFF7E0F90223A5A20421442001
:1046B000FFF7DAF90223A3A204216220FFF7D4F95D
:1046C000FFF7B3F9A048FDF7F7FEA048FDF7F4FEA9
:1046D0009F48FDF7F1FE9F48FDF7EEFE9E48FDF76F
:1046E000EBFE00219A48FEF709F904219848FEF7ED
:1046F00005F908219648FEF701F99849A1F128002B
:10470000FFF772FA00219648FCF7BAFD934874301F
:10471000FFF716FA9FED938B944C4FF080494FF0C2
:104720007E589FED939ADFED939AB2EE04AA012092
:10473000FEF7B0FD2070012803D00228606C11D173
:1047400007E0606CFBF71EFF53EC182BFBF701FE34
:1047500005E0FBF717FF53EC182BFBF79BFEFBF76D
:1047600024FF6064484503DDB0EE000A84ED110AC1
:10477000606C4546A84203DAB7EE000A84ED110AE0
:104780000020FEF7D5FD6070032806D004280DD068
:10479000052822D0062836D157E094ED110ADFED26
:1047A000760A20EE200A84ED050A2CE0B9EE000A14
:1047B00084ED010ADFED710AC4ED020A84ED030AFB
:1047C000C4ED040A9FED6E0A84ED060A9FED6D0AA2
:1047D000022384ED050A6CA211E09FED6D0A84EDC1
:1047E000010ADFED6C0AC4ED020A84ED030AC4ED90
:1047F000040A9FED690A022384ED060A67A20221DA
:104800002720FFF731F994ED110A10EE100AA842A3
:1048100028DD10EE100AFBF7B5FE9FED621B53EC8E
:10482000112BFBF73DFE9FED611B53EC112BFBF7AA
:1048300090FD9FED601B53EC112BFBF731FEFBF756
:10484000B4FE00EE100AA06410E09FED5C0A0223A3
:1048500084ED010A84ED020A84ED030A84ED040A62
:1048600033A2CCE720EE090A84ED120AC0EE290A31
:10487000FCEEE00A10EE900AC2B24FF47A7012FB1E
:1048800000F000EE900AF8EE600A70EE600A80EE2A
:10489000891AFCEEC10A10EE900AC5B24FF47A7084
:1048A00012FB00F100EE901A6420F8EE600A30EE80
:1048B000601A15FB00F000EE900AF8EE600A71EE47
:1048C000600A80EE8A1AFCEEC10A10EE903A00EE01
:1048D000901A0421DEB2F8EE600A70EE600A00EE73
:1048E000100A06EB86004000B8EE400A70EEC00ADF
:1048F00000EE100AB8EE400A30EEC00ABCEEC00A64
:1049000010EE100AC7B23220FEF7CEFF2A4604216D
:104910003C20FEF7C9FF324604214B20FEF7C4FFBE
:104920003A4604215520FEF7BFFFFFF77EF8FEE66A
:1049300053544F5020202000497365743A00000002
:104940002E00000041000000640D0020AC0D00208E
:104950001C0D0020F40D00203C0E0020740B0020E4
:10496000B40C00207B14AE47E17A843F780000202D
:104970000000C84200007A44F4FDB4BFCDCC4CBE68
:10498000CDCC4C3FF4FD34C0504152414C4C45001D
:10499000CDCCECC09A9999BE3BDF4F3F4F4E2D478F
:1049A00052494400F9A067B3EA73DD3F287E8CB911
:1049B0006B09E13F0000000000005940000000804A
:1049C0000000000000000000002F000000000700B1
:1049D000070000147F147F1400242A7F2A1200622B
:1049E00064081323003649552250000005030000D7
:1049F00000001C224100000041221C000014083E5F
:104A000008140008083E0808000000A06000000824
:104A10000808080800006060000000201008040278
:104A2000003E5149453E0000427F40000042615136
:104A30004946002141454B31001814127F100027D0
:104A400045454539003C4A49493000017109050393
:104A500000364949493600064949291E00003636C4
:104A60000000000056360000000814224100001427
:104A70001414141400004122140800020151090604
:104A800000324959513E007C1211127C007F494985
:104A90004936003E41414122007F4141221C007FB6
:104AA00049494941007F09090901003E4149497AC4
:104AB000007F0808087F0000417F4100002040413E
:104AC0003F01007F08142241007F40404040007FAA
:104AD000020C027F007F0408107F003E4141413EEE
:104AE000007F09090906003E4151215E007F091936
:104AF00029460046494949310001017F0101003F33
:104B00004040403F001F2040201F003F4038403FB2
:104B10000063140814630007087008070061514916
:104B2000454300007F41410000552A552A550000A9
:104B300041417F0000040201020400404040404027
:104B4000000001020400002054545478007F4844BF
:104B5000443800384444442000384444487F0038F6
:104B60005454541800087E0901020018A4A4A47C1F
:104B7000007F080404780000447D400000408084E9
:104B80007D00007F102844000000417F4000007C31
:104B900004180478007C080404780038444444383D
:104BA00000FC242424180018242418FC007C080489
:104BB000040800485454542000043F444020003C62
:104BC0004040207C001C2040201C003C4030403CE9
:104BD000004428102844001CA0A0A07C0044645479
:104BE0004C441414141414140000000000000000BD
:104BF0000000000000000000000000F800000000BD
:104C0000000000333000000000100C06100C0600FD
:104C1000000000000000000040C07840C078400064
:104C2000043F04043F040400007088FC08300000C6
:104C3000001820FF211E0000F008F000E01800001E
:104C400000211C031E211E0000F0088870000000D7
:104C50001E2123241927211010160E000000000029
:104C60000000000000000000000000E01804020046
:104C7000000000071820400000020418E0000000B7
:104C80000040201807000000404080F080404000B5
:104C90000202010F01020200000000F0000000000B
:104CA0000101011F010101000000000000000000DF
:104CB00080B0700000000000000000000000000054
:104CC00000010101010101010000000000000000DD
:104CD0000030300000000000000000008060180478
:104CE000006018060100000000E010080810E00055
:104CF000000F102020100F00001010F8000000001E
:104D00000020203F20200000007008080888700064
:104D100000302824222130000030088888483000E4
:104D20000018202020110E000000C02010F8000004
:104D300000070424243F240000F80888880808009D
:104D40000019212020110E0000E0108888180000B2
:104D5000000F112020110E0000380808C838080084
:104D60000000003F00000000007088080888700004
:104D7000001C222121221C0000E010080810E00085
:104D80000000312222110F00000000C0C00000000E
:104D90000000003030000000000000800000000033
:104DA000000080600000000000008040201008002B
:104DB00000010204081020004040404040404000F4
:104DC00004040404040404000008102040800000CF
:104DD0000020100804020100007048080808F000D4
:104DE0000000003036010000C030C828E810E000A4
:104DF0000718272423140B000000C038E00000002F
:104E0000203C23020227382008F888888870000098
:104E1000203F202020110E00C0300808080838006C
:104E2000071820202010080008F808080810E000E3
:104E3000203F202020100F0008F88888E808100084
:104E4000203F20202320180008F88888E808100058
:104E5000203F200003000000C03008080838000090
:104E600007182020221E020008F808000008F80891
:104E7000203F210101213F20000808F80808000018
:104E80000020203F2020000000000808F80808004B
:104E9000C08080807F00000008F888C028180800C3
:104EA000203F20012638200008F8080000000000FC
:104EB000203F20202020300008F8F800F8F80800F3
:104EC000203F003F003F200008F830C00008F808ED
:104ED000203F200007183F00E01008080810E000FD
:104EE0000F10202020100F0008F808080808F00014
:104EF000203F210101010000E01008080810E00037
:104F00000F18242438504F0008F8888888887000CB
:104F1000203F2000030C302000708808080838006B
:104F20000038202121221C00180808F80808180061
:104F30000000203F2000000008F808000008F808E2
:104F4000001F202020201F000878880000C8380893
:104F5000000007380E010000F80800F80008F8000B
:104F6000033C0700073C03000818688080681808A5
:104F700020302C03032C30200838C800C838080023
:104F80000000203F2000000010080808C838080072
:104F90002038262120201800000000FE0202020016
:104FA0000000007F40404000000C30C000000000C6
:104FB000000000010638C00000020202FE000000EE
:104FC000004040407F000000000004020202040094
:104FD00000000000000000000000000000000000D1
:104FE00080808080808080800002020400000000B9
:104FF00000000000000000000000808080800000B1
:105000000019242222223F2008F80080800000009E
:10501000003F112020110E00000000808080000061
:10502000000E112020201100000000808088F80070
:10503000000E112020103F200000808080800000A2
:10504000001F222222221300008080F08888881806
:105050000020203F20200000000080808080800011
:10506000006B94949493600008F8008080800000A6
:10507000203F210000203F20008098980000000081
:105080000020203F202000000000008098980000B1
:1050900000C08080807F000008F8000080808000D1
:1050A000203F24022D302000000808F800000000F6
:1050B0000020203F202000008080808080808000B1
:1050C000203F20003F20003F808000808080000043
:1050D000203F210000203F200000808080800000D1
:1050E000001F202020201F00808000808000000002
:1050F00080FFA12020110E00000000808080800031
:10510000000E112020A0FF80808080008080800021
:1051100020203F212000010000008080808080004E
:105120000033242424241900008080E080800000C3
:105130000000001F20200000808000000080800010
:10514000001F202020103F20808080000080808071
:1051500000010E3008060100808000800080808001
:105160000F300C030C300F00008080008080800026
:105170000020312E0E312000808080000080808051
:1051800080818E7018060100008080808080800001
:105190000021302C2221300000000000807C02021F
:1051A00000000000003F404000000000FF00000041
:1051B00000000000FF0000000002027C80000000F0
:1051C0000040403F0000000000060101020204040C
:1051D0000000000000000000000610160006101677
:1051E0000000000000000000010203040607080997
:1051F000000000000102030400000000920E493C80
:10520000B10AC93C2BC3163D2EFB483D752B7B3D97
:1052100004A9963D80B6AF3D36BDC83D2FBCE13DEB
:1052200073B2FA3D87CF093E8340163EB5AB223EAE
:10523000A2102F3ECF6E3B3EC2C5473E0115543EE5
:10524000135C603E7F9A6C3ECCCF783EC07D823E40
:10525000938E883E229A8E3E32A0943E86A09A3E3D
:10526000E59AA03E128FA63ED47CAC3EEF63B23EE0
:105270002A44B83E491DBE3E15EFC33E53B9C93E50
:10528000CA7BCF3E4136D53E80E8DA3E4F92E03EC3
:105290007533E63EBBCBEB3EEA5AF13ECBE0F63E41
:1052A000275DFC3EE4E7003F3D9C033F824B063F09
:1052B0009BF5083F6B9A0B3FDA390E3FCDD3103F79
:1052C0002A68133FD9F6153FC07F183FC6021B3F1F
:1052D000D17F1D3FCBF61F3F9967223F25D2243F48
:1052E0005636273F1594293F4AEB2B3FDE3B2E3F96
:1052F000BB85303FC9C8323FF304353F233A373FBF
:105300004268393F3B8F3B3FF9AE3D3F67C73F3F68
:1053100070D8413F01E2433F03E4453F65DE473F2C
:1053200012D1493FF8BB4B3F029F4D3F207A4F3F80
:105330003D4D513F4918533F31DB543FE595563FB2
:105340005348583F6AF2593F1A945B3F532D5D3FD3
:1053500005BE5E3F2146603F97C5613F5A3C633FB3
:1053600059AA643F880F663FD86B673F3CBF683FD0
:10537000A7096A3F0C4B6B3F5E836C3F93B26D3F56
:105380009ED86E3F73F56F3F0809713F5213723F0D
:105390004714733FDD0B743F0BFA743FC6DE753F55
:1053A00007BA763FC58B773FF853783F9812793F1D
:1053B0009DC7793F02737A3FBE147B3FCDAC7B3FE4
:1053C000283B7C3FC9BF7C3FAC3A7D3FCCAB7D3FA7
:1053D00023137E3FB0707E3F6DC47E3F580E7F3FEB
:1053E0006D4E7F3FAB847F3F0FB17F3F97D37F3FB1
:1053F00043EC7F3F11FB7F3F0000803F11FB7F3F6D
:1054000043EC7F3F97D37F3F0FB17F3FAB847F3F1C
:105410006D4E7F3F580E7F3F6DC47E3FB0707E3F24
:1054200023137E3FCCAB7D3FAC3A7D3FC9BF7C3F71
:10543000283B7C3FCDAC7B3FBE147B3F02737A3F61
:105440009DC7793F9812793FF853783FC58B773FD6
:1054500007BA763FC6DE753F0BFA743FDD0B743F2B
:105460004714733F5213723F0809713F73F56F3F42
:105470009ED86E3F93B26D3F5E836C3F0C4B6B3F8B
:10548000A7096A3F3CBF683FD86B673F880F663FFC
:1054900059AA643F5A3C633F97C5613F2146603F2C
:1054A00005BE5E3F532D5D3F1A945B3F6AF2593F44
:1054B0005348583FE595563F31DB543F4918533F19
:1054C0003D4D513F207A4F3F029F4D3FF8BB4B3F30
:1054D00012D1493F65DE473F03E4453F01E2433FC8
:1054E00070D8413F67C73F3FF9AE3D3F3B8F3B3FE1
:1054F0004268393F233A373FF304353FC9C8323F4A
:10550000BB85303FDE3B2E3F4AEB2B3F1594293FB6
:105510005636273F25D2243F9967223FCBF61F3FBF
:10552000D17F1D3FC6021B3FC07F183FD9F6153FF4
:105530002A68133FCDD3103FDA390E3F6B9A0B3FE9
:105540009BF5083F824B063F3D9C033FE4E7003F4D
:10555000275DFC3ECBE0F63EEA5AF13EBBCBEB3E8C
:105560007533E63E4F92E03E80E8DA3E4136D53E66
:10557000CA7BCF3E53B9C93E15EFC33E491DBE3E5F
:105580002A44B83EEF63B23ED47CAC3E128FA63EB6
:10559000E59AA03E86A09A3E32A0943E229A8E3E84
:1055A000938E883EC07D823ECCCF783E7F9A6C3E03
:1055B000135C603E0115543EC2C5473ECF6E3B3E74
:1055C000A2102F3EB5AB223E8340163E87CF093E48
:1055D00073B2FA3D2FBCE13D36BDC83D80B6AF3D4C
:1055E00004A9963D752B7B3D2EFB483D2BC3163DF4
:1055F000B10AC93C920E493C00000000920E49BC21
:10560000B10AC9BC2BC316BD2EFB48BD752B7BBD93
:1056100004A996BD80B6AFBD36BDC8BD2FBCE1BDE7
:1056200073B2FABD87CF09BE834016BEB5AB22BEAA
:10563000A2102FBECF6E3BBEC2C547BE011554BEE1
:10564000135C60BE7F9A6CBECCCF78BEC07D82BE3C
:10565000938E88BE229A8EBE32A094BE86A09ABE39
:10566000E59AA0BE128FA6BED47CACBEEF63B2BEDC
:105670002A44B8BE491DBEBE15EFC3BE53B9C9BE4C
:10568000CA7BCFBE4136D5BE80E8DABE4F92E0BEBF
:105690007533E6BEBBCBEBBEEA5AF1BECBE0F6BE3D
:1056A000275DFCBEE4E700BF3D9C03BF824B06BF05
:1056B0009BF508BF6B9A0BBFDA390EBFCDD310BF75
:1056C0002A6813BFD9F615BFC07F18BFC6021BBF1B
:1056D000D17F1DBFCBF61FBF996722BF25D224BF44
:1056E000563627BF159429BF4AEB2BBFDE3B2EBF92
:1056F000BB8530BFC9C832BFF30435BF233A37BFBB
:10570000426839BF3B8F3BBFF9AE3DBF67C73FBF64
:1057100070D841BF01E243BF03E445BF65DE47BF28
:1057200012D149BFF8BB4BBF029F4DBF207A4FBF7C
:105730003D4D51BF491853BF31DB54BFE59556BFAE
:10574000534858BF6AF259BF1A945BBF532D5DBFCF
:1057500005BE5EBF214660BF97C561BF5A3C63BFAF
:1057600059AA64BF880F66BFD86B67BF3CBF68BFCC
:10577000A7096ABF0C4B6BBF5E836CBF93B26DBF52
:105780009ED86EBF73F56FBF080971BF521372BF09
:10579000471473BFDD0B74BF0BFA74BFC6DE75BF51
:1057A00007BA76BFC58B77BFF85378BF981279BF19
:1057B0009DC779BF02737ABFBE147BBFCDAC7BBFE0
:1057C000283B7CBFC9BF7CBFAC3A7DBFCCAB7DBFA3
:1057D00023137EBFB0707EBF6DC47EBF580E7FBFE7
:1057E0006D4E7FBFAB847FBF0FB17FBF97D37FBFAD
:1057F00043EC7FBF11FB7FBF000080BF11FB7FBF69
:1058000043EC7FBF97D37FBF0FB17FBFAB847FBF18
:105810006D4E7FBF580E7FBF6DC47EBFB0707EBF20
:1058200023137EBFCCAB7DBFAC3A7DBFC9BF7CBF6D
:10583000283B7CBFCDAC7BBFBE147BBF02737ABF5D
:105840009DC779BF981279BFF85378BFC58B77BFD2
:1058500007BA76BFC6DE75BF0BFA74BFDD0B74BF27
:10586000471473BF521372BF080971BF73F56FBF3E
:105870009ED86EBF93B26DBF5E836CBF0C4B6BBF87
:10588000A7096ABF3CBF68BFD86B67BF880F66BFF8
:1058900059AA64BF5A3C63BF97C561BF214660BF28
:1058A00005BE5EBF532D5DBF1A945BBF6AF259BF40
:1058B000534858BFE59556BF31DB54BF491853BF15
:1058C0003D4D51BF207A4FBF029F4DBFF8BB4BBF2C
:1058D00012D149BF65DE47BF03E445BF01E243BFC4
:1058E00070D841BF67C73FBFF9AE3DBF3B8F3BBFDD
:1058F000426839BF233A37BFF30435BFC9C832BF46
:10590000BB8530BFDE3B2EBF4AEB2BBF159429BFB2
:10591000563627BF25D224BF996722BFCBF61FBFBB
:10592000D17F1DBFC6021BBFC07F18BFD9F615BFF0
:105930002A6813BFCDD310BFDA390EBF6B9A0BBFE5
:105940009BF508BF824B06BF3D9C03BFE4E700BF49
:10595000275DFCBECBE0F6BEEA5AF1BEBBCBEBBE88
:105960007533E6BE4F92E0BE80E8DABE4136D5BE62
:10597000CA7BCFBE53B9C9BE15EFC3BE491DBEBE5B
:105980002A44B8BEEF63B2BED47CACBE128FA6BEB2
:10599000E59AA0BE86A09ABE32A094BE229A8EBE80
:1059A000938E88BEC07D82BECCCF78BE7F9A6CBEFF
:1059B000135C60BE011554BEC2C547BECF6E3BBE70
:1059C000A2102FBEB5AB22BE834016BE87CF09BE44
:1059D00073B2FABD2FBCE1BD36BDC8BD80B6AFBD48
:1059E00004A996BD752B7BBD2EFB48BD2BC316BDF0
:1059F000B10AC9BC920E49BC000000801C5A0008C4
:105A000000000020B001000090070008A45A000820
:105A1000B001002048120000DC4500080118000D0C
:105A200048F4FDB43F62149D4317B7D1381B010100
:105A3000042908A1AA800419740A3FBF64318210A6
:105A40005324F45D8CF1333C08080917BC3C28FD55
:105A50003F74607A68280923E6B43823E6343908AD
:105A6000091E2C051417B7D1376009B640A242F5BC
:105A700088A1C223C8431A9604412348421A7004DD
:105A8000291400171AC8C36E28353F640603BB6487
:105A9000A534BF7BE8FFBF1FE17F3F1BFA44040230
:045AA00000C400003E
:040000050800018965
:00000001FF
